:040000008A110D282C
:10000800FE00030EF8000408F9000A08FA008A1135
:100018000F288A116C2C8B1A0B1D172883300B1193
:100028008312031381070B188B1D1B280B108316D3
:1000380003130C1C642883120C1C642820308706C8
:100048003C30C60A4602031C61283C30C601C50A7A
:100058004502031C61281830C501C40A4402031C68
:1000680061280730C401C00A4002031C3D28C001B2
:10007800C00AC10A4108660203186128C101542850
:100088001F3050284308033E0339031D4D281D30F7
:1000980050281C3050281E30E6006128C30A612809
:1000A800C20A420884000C300402031852280430A3
:1000B8008A000310040D423E820080308F070C1026
:1000C80083128C1E852983168C1E85298312981C01
:1000D80077284F30471699008316981C702883128A
:1000E800181218168329181D83284716981398176D
:1000F8001A08463099008316981883297F281A0809
:10010800FB007B0899008316981C872883124A08ED
:10011800303E99008316981C8E287C08303E831246
:1001280099008316981C9528831247080139303E98
:1001380099004A08033A031DA6284B08990083161C
:10014800981CA3288316981CA6288312471CC2282B
:10015800583099008316981CAE287B083E3A03193C
:10016800BD283E30831299008316981CB828831244
:10017800C71783124710FC01CA0A7429CA08031D4D
:10018800CD287B08493A0319CA28C7178312471490
:1001980074294A0BF528FC08031DDE287B08CB00D0
:1001A80030304B02031CDC2838304B02031CF32888
:1001B800C717F3287B08D03EC80010304802031C3C
:1001C800E7284715F32848084E060319F228503047
:1001D80099008316981CED288C12F3284714FC0A02
:1001E80074294A08023A031D17294A3099008316D0
:1001F800981CFB287C08303E840083130008831277
:1002080099008316981C05297C08303E84008313C6
:1002180000087B068312031D4717FC0A7C08303E42
:100228008400800866294A08033A031D69294B0897
:10023800303A031923294B08323A031D34297C0824
:10024800023A0319F2287C084E3EF60000300318E3
:100258000130F7007B0876067704031DDC28F328B5
:100268004B08313A031D4429FC08031D74297B08F7
:10027800F0001A30F101F200F3018E218A11F328FF
:100288004B08373A031D7429FC08031D53297B08C2
:10029800C9004806031D4C1B7429C71574297B081F
:1002A8003C3A031D5D2905307C020318CA28C7178C
:1002B80074297C081F3E84007B0883138000FC0A95
:1002C8007C080F3A0319CA2874294A08043A031DFE
:1002D80074297B08463A03197229C7177D14CA0185
:1002E800043083124702031C832947104A08303E12
:1002F80099008316981C7D298312CA017D148312E4
:100308008C127A088A0079088400780E8300FE0E21
:100318007E0E0900F401F501701C98297208F40793
:100328000318F50A7308F5070310F20DF30D03100F
:10033800F10CF00C71087004031D90297508F10088
:100348007408F0000800713083168F0083120317B9
:100358009E019F011F3083160313850070308600AD
:10036800870183128701C8308B0003308316810010
:100378000F30831290008E0180308F000130831679
:100388008C0015148A115A248A11C001C101C201B6
:10039800C301C401C501C6018A11C6238A118A1185
:1003A800D6238A112A30831299008316981CD929DA
:1003B8007D1CCF2A0A307D10831299008316981C61
:1003C800E2294930831299008316981CE8290430E1
:1003D80083124702CA010318822A4F3099008316F4
:1003E800981CF3294B30831299008316981CF9291D
:1003F80083124B08323A031D2A2A43088A11F32232
:100408008A11831242088A11F3228A11831244083E
:100418008A11F3228A11831245088A11F3228A115C
:10042800831246088A11F3228A1183124D088A1111
:10043800F3228A1110308A11F3228A1100308312B4
:10044800051801308A11F3228A11C82A4B08373A55
:10045800031D592AE5016508203E8400831300081E
:10046800E2006508303E8400620880006508303E7E
:1004780084000008CF004808E200620EF039E2006C
:10048800650862078A1123248A118C18492A831265
:100498000313E50A65081F3E840080080319C82A6B
:1004A800103065020318C82A2F2A4B08303A03195E
:1004B8007D2AC82A04300714E4004D30E3002530B3
:1004C800E200E20B652AE30B652AE40B652A831236
:1004D8000313071005187D2A0230E4000430E300F6
:1004E800BA30E200E20B762AE30B762AE40B762A8E
:1004F8006400831203130518C82A5E2AC71F9B2AA3
:10050800453099008316981C862A5030831299002A
:100518008316981C8C2A83124B08373A031D992A94
:10052800533099008316981C962A8312C713471EC6
:10053800AA2A453099008316981C9F2A43308312B3
:1005480099008316981CA52A83124712471FB92AB7
:10055800453099008316981CAE2A533083129900AF
:100568008316981CB42A83124713471DC82A45309E
:1005780099008316981CBD2A493083129900831666
:10058800981CC32A83124711463083129900831698
:100598009818DC29CB2A83168C1ADC2983124A0383
:1005A800031DDC298A11D6238A1101308312E20047
:1005B8004B08D03E013EE22A0310E20DFF3E031D28
:1005C800E02A62084C050319F12A43309900831682
:1005D800981CEB2A83124714DC29C715DC298312DF
:1005E800E0002B3099008316981CF72A6430831298
:1005F800CF00600866238A11E100303E9900831617
:10060800981C032B0A308312D500D6016108CF004D
:100618009C30D001D100FF30D2004D238A116008F0
:100628004F07D70050080318500AD80081238A11B1
:100638005508DF00303E99008316981C202BF630B1
:100648008312CF005F083F238A11DD009C30CF0062
:1006580061083F238A115D07DE0060085E07303EAF
:1006680099008316981C352B2B308312990083161A
:10067800981808003B2BD100D0014F085118D0071B
:100688000310CF0D0310D10CD108031D412B5008C6
:100698000800D301D4014F1C572B5108D307031866
:1006A800D40A5208D4070310D10DD20D0310D00C70
:1006B800CF0C50084F04031D4F2B5408D00053088B
:1006C800CF000800D000D2014F0803197F2BD101B9
:1006D800D10ACF1B722B0310CF0D6C2B0310D20D38
:1006E8004F085002031C7C2B4F08D00252140310F1
:1006F800CF0CD10B722B52080800DA01D61F8B2BB6
:10070800D509D609D50A0319D60ADA01DA0AD81F93
:10071800942BD709D809D70A0319D80A0130DA0661
:10072800DB01DC01560855040319B92BD901D90A94
:10073800D61BA22B0310D50DD60D9B2B0310DB0D5A
:10074800DC0D56085802031DAB2B55085702031C35
:10075800B52B5508D7025608031CD803D8025B14DA
:100768000310D60CD50CD90BA22B5A080319C12B90
:10077800DB09DC09DB0A0319DC0A5C08D6005B0824
:10078800D5000800D001500EF0390C248A11FF3A28
:100798000313031DCD0A10300313D00A50020318A7
:1007A8000800C72B0A3099008316981CD82B83128F
:1007B800D1015108303E84004808D000500EF0396D
:1007C800D000510850070C248A11831380000313AA
:1007D8005108303E8400000899008316981CF12BBC
:1007E8008312D10A51082F3E84008313800803190D
:1007F800012C0F305102031CDD2B480EF0390F3E3F
:100808000C240313CC004808CE0083168C1608006D
:10081800CF006400831603178C180D2C8312031362
:100828004F0803178D003F3083168C050C140310F6
:100838000C1803140318013083120C080800D000A8
:10084800831603178C18242C8312031350080317DC
:100858008D0003134F0803178C003F3083168C0557
:1008680003108B1B031455308B130C158D00AA3005
:100878008D008C140C1103188B1708008A1144285A
:100888008A1146288A1144288A114F288A11442837
:100898008A114F288A1144288A1144288A114F281E
:1008A8008A1144288A114F288A11442818121815C9
:1008B8009B159A0110309900831298178316181304
:1008C80098160C128C120B1783121813181608009E
:1008D8002030FD01FB01FC01831384004F308A1195
:1008E8007A241F30E60083018A11A7296400800159
:0C08F800840A04060319003404067B2C5B
:02400E00E4F0DC
:00000001FF
