:061000000CEF08F01F00D8
:10100800E1CF1FF0E2CF20F0D9CF21F0BDED10F0F5
:0410180009EF14F0D8
:101100000001000A006400E80310270A0A0A2530DB
:1011100032643A253032643A253032642D2530323B
:10112000642E253032642E25303264000A0A436F63
:101130006E7461206E616F206578697374656E747A
:1011400065000A0A4572726F2064652070726F74C0
:101150006F636F6C6F000A0A4572726F20646520BE
:101160006162657274757261000A0A53656E686126
:1011700020696E636F7272657461000A0A44657358
:1011800074726176616E646F2E2E2E000A0A506FA3
:101190007274612061626572746100286E756C6C96
:1011A000290041542B434F4E00444953433F0052C2
:1011B0004144443F00414444523F00534C45455054
:1011C0000052455345540053544152540042415536
:1011D0004400524F4C45004E414D45000A0A2573CC
:1011E0000041542B002A2563005345000A49004F53
:1011F0004B0041540020002A00000001AC6BAA6B98
:10120000AD6BA66BAE6BA56BA86BA36BA46BF00E5E
:10121000D36EE00EF26EF16A210E9D6ED09E870EA7
:10122000D56EC20ED76EF70ED66E8C6AF00E936E28
:10123000926A040E966E0F0E8A6EDF0E946E956A99
:10124000C168070EB46E0E0ECD6EC00ECF6ECE6AA4
:10125000616B606B39EC17F0FF0AD8B449EC13F0FE
:10126000230EE2EC16F05DEC16F0A56FA5518DECA7
:1012700013F0AB6B20D0500E626F010E636FAB5159
:10128000FFEC12F00001AB51110D500EF324606F12
:10129000010EF420616F16EC15F00001AEEC0DF0BC
:1012A0008DEC13F0ABC089F0A2EC0DF08A51A313C2
:1012B0008B51A413AB2BA551AB5DDDE3AB6B9D8ACA
:1012C00000D000D0386A010E396E3A6E38C06CF02A
:1012D00000016D6B39C06EF03AC06FF0E8EC11F0B0
:1012E0003E6E3B6A3C6A3D6A81CF31F0F286F290F5
:1012F000AE6B030E5FEC12F0140E616F010E41EC49
:1013000015F0010E84B4000E6C6F6D6BE60EDCEC14
:101310000DF0010E616F41EC15F08D802DA231D2E0
:101320002D922EB67ED10A0E49EC17F0000E000168
:10133000606F010E616F16EC15F00A0E49EC17F0A4
:101340000001AE6B69D1B1A10AD0F5DB3E0EDE180B
:1013500002E0B18F57D1B191AC6BAA2B53D1AA51F6
:1013600007E1E9DB490EDE18D8A4B18F000178D07F
:10137000AA0550E1E0DBDF50AD6FAE2B2F0EAD655F
:1013800003D0370EAD6501D0B18FD5DBDF50606F74
:10139000AE2BD1DBDF50616F300EF3EC16F0AB6F8C
:1013A0000F0EAB6502D0B18508D0360EAD1905E041
:1013B000ABC089F0C7DBF9DBF6E0D0DB896F300E1C
:1013C000606FADC061F0F3EC16F08A6F010E8B6FA9
:1013D0008A2B02D0D8908B378A2FFCD700018B51F3
:1013E0008915C4E1B187BADB896FADC08AF0D00E30
:1013F0008A27010E8B6F8A2B02D0D8908B378A2FC9
:10140000FCD700018B5189158DEC13F0A7DB8DEC17
:1014100013F0ACD7020EAA1925E1AC6B16D0A8DBED
:10142000AB51110D500E8C6F010E8D6FF3508C2748
:10143000F4508D23AC518C25E16E000E8D21E26EAF
:10144000DE50E618D8A4B18DAC2BAB519CDBAC516F
:101450008925D96E000E8A21DA6EDF50E0E1AE07F1
:10146000B181D0D0030EAA1901E0BCD0300EAD1965
:1014700003E0320EAD1918E1AC6B7ADBDF508B6FF5
:101480008C6BAC518D6F8E6B4E0E8D27000E8E23A4
:101490008B518D1903E18C518E19D8A4B18FAC2BCF
:1014A000010EAC65EAD762D7310EAD1905E1AC513A
:1014B00001E0A8D0AC2BA6D0340EAD1956E1380E01
:1014C000AF6FB06BAC6B37DB580EDE1803E1AC2BA3
:1014D000020EAE27AC51AF25D96E000EB021DA6EE8
:1014E000000EAE25E16EE26A010EE222E750606F67
:1014F000010EAE25E16EE26A010EE222E750616F55
:10150000300EF3EC16F0DF6E020EAE27AC2B050E9C
:10151000AC65D9D738C06CF06D6B39C06EF03AC08D
:101520006FF0E8EC11F03E6E0C0E396401D003D080
:10153000395002E1010E396E3A503F5C03E23FC080
:101540003AF004D03A5002E1010E3A6E170E3B64B5
:1015500001D03B6A3B0E3C6401D03C6A3B0E3D64CB
:1015600001D03D6AB181AE074DD0360EAD1903E012
:10157000370EAD1947E1360EAD1905E1DCDADF5063
:10158000D00FA66F05D0370EAD19D8B4ABC0A6F0FA
:10159000AC6BD1DA3E0EDE1802E1B18F18D0CBDA97
:1015A0003C0EDE180DE1050EAC6101D0F6D70E0E33
:1015B000AC6112D0AC51DC0FD96EDA6ADF6A0CD0A4
:1015C000BADAAC51DC0FE16EE26ADFCFE7FFAE2B97
:1015D000AC2B0E0EAC65DDD7DC0E606F616B16ECCC
:1015E00015F0C4D6040EAA190DE1A5DA460EDE18D0
:1015F000D8A4B18F2D80356A000E606F010E616F27
:10160000D1EC16F0010EB16506D0AA518DEC13F0A5
:10161000B191AA6BB5D0AE2B3550AE5D01E3B1D020
:1016200092D62EA4AED02DA821D00001606BC00EA2
:1016300042EC17F0B3511AE02F0EA86517D03A0EFE
:10164000A86114D03650B40FD96EDA6AA851030DD0
:10165000F350B325CD0FDF6EB36BB251A81904E080
:10166000B2C0A8F0CD8008D0A86B06D03650B40F19
:10167000D96EDA6AB2C0DFFF0001B36BB26BB40E91
:101680006C6FDC0EDCEC0DF03650B40FD96EDA6AFC
:10169000460EDE1817E036500BE036C061F0020E41
:1016A00041EC15F07ADAE50EDCEC0DF0CD800AD0D5
:1016B0003628616F020E41EC15F06FDAE60EDCECB5
:1016C0000DF0F4D73650B40FD96EDA6A460EDE1834
:1016D00004E0362A270E361854E1606BC00E42EC47
:1016E00017F03650B40FD96EDA6ADF6AB4510A0DBA
:1016F000F350B525F00FAB6F020EAE6F0F0EAB655A
:1017000002D0B18508D0360EAD1905E0ABC089F026
:1017100019DA4BDAF6E0070E366001D0B18F020E0F
:10172000ADEC16F020D0AB51110DFE0E896F8A6919
:10173000500E8B6F010E8C6F89518B278A518C2331
:10174000F3508B27F4508C23AE518B25D96E000EAD
:101750008C21DA6EAE51B40FE16EE26ADE50E6180B
:10176000D8A4B18DAE2B120EAE6109D0AE51B20F1E
:10177000D96EDA6ADF5003E0010EB165D4D72D8E41
:101780002D802DA049D12D900001AE6BAA6B000ECB
:10179000606F010E616FD1EC16F0B40E606F616B7B
:1017A000D1EC16F02EA45FD0020EB16147D0030E2B
:1017B000ADEC16F07B0EDCEC0DF089698A0EE82E9C
:1017C000FED7892FFCD700D0030E0001616F200ED9
:1017D000606F72EC16F0A16B15D0A12B060EA1194B
:1017E00002E1B18B11D08B88010E616F5E0E606FCC
:1017F00072EC16F084B405D0616B640E606F72EC0D
:1018000016F08B9884A4E9D7140E616F010E41EC99
:1018100015F0010E84A4000E6C6F6D6BE60EDCEC0F
:101820000DF0030EADEC16F084B404D0560EDCECD3
:101830000DF0F2D08C0EDCEC0DF0EED0030EADEC22
:1018400016F0B1AF04D0420EDCEC0DF0E5D0B1A53E
:1018500004D02C0EDCEC0DF0DFD0B1ADDDD0690E84
:10186000DCEC0DF0D9D0EC0E606F6051D8A4110EF5
:10187000616F16EC15F00001B15101E093D0AA6B35
:101880008C74EF0E606F6051D8A4110E616F16EC6E
:1018900015F0320E0001AD1921E138508DEC13F036
:1018A00039508DEC13F03E508DEC13F03A508DEC26
:1018B00013F03B508DEC13F03C508DEC13F03D5089
:1018C0008DEC13F0A5518DEC13F0100E8DEC13F090
:1018D000010E84A4000E8DEC13F098D0370EAD19D4
:1018E00003E0360EAD1941E1A6C089F02BD98A512B
:1018F000A3138B51A413A96BA951DC0FD96EDA6A1B
:10190000A65141D9A9518925E16E000E8A21E26EC6
:10191000DFCFE7FF66EC17F00001A651896F8A6BF5
:10192000893B8A3BF00E8A1789510F0B8A13F00E00
:101930008917A9518925606F000E8A21616FA9510D
:10194000DC0FD96EDA6ADF50626F2DEC16F0A6B2AA
:10195000FED70001A92BA951DB0FD96EDA6ADF503F
:1019600055E00F0EA965C8D751D0300EAD194EE124
:10197000A26B15D0A22B060EA21902E1B18B46D0A4
:101980008B88010E616F450E606F72EC16F08B98BC
:1019900084B405D0616B640E606F72EC16F084B491
:1019A00035D0E8D7450E49EC17F00001B1A308D0B7
:1019B000E90E606F6051D8A4110E616F16EC15F03E
:1019C0000001B1AB03D0410E49EC17F00001B1A703
:1019D00003D04E0E49EC17F00001B1AF03D0500E0A
:1019E00049EC17F00001B1A903D0430E49EC17F000
:1019F0000001B1AD03D0530E49EC17F00001B1A5C1
:101A000003D0490E49EC17F00001B16B460E49ECCA
:101A100017F081CF31F0F2868150F00BF00AD8B484
:101A2000F2B652D02DB62EA44FD00001616B640ED9
:101A3000606F72EC16F02F0EB26503D0390EB265EE
:101A40002AD0606BC00E42EC17F0B2C0A8F0460E70
:101A5000B21902E12D8233D0410EB21902E1100E0B
:101A600004D02A0EB21903E1200E2D1A28D0440EFC
:101A7000B21925E13650D8A436063650B40FD96EC7
:101A8000DA6ADF6A36C061F0020E41EC15F0F50E3D
:101A9000DCEC0DF014D02DA8DDD7B251A8190BE164
:101AA000B32B030EB319D6E0020EB31908E1390EB9
:101AB000B219D0E004D0B351CDE1B2C0A8F02DB836
:101AC000CD8081CF31F0F2862DAE26D02D9E2EA076
:101AD00023D03BC06CF000016D6B3CC06EF06F6BAF
:101AE0003DC070F0716B3AC072F0736B39C074F026
:101AF000756B0F0E3824606F616B000E6123636B92
:101B0000640E626FAEEC14F060C076F061C077F0E6
:101B10000B0EDCEC0DF02E902DAE2DB28EEF09F0F9
:101B20002DA0F2A68EEF09F09DAA8EEF09F003001A
:101B300000F08EEF09F0000EAE25D96EDA6A010EC4
:101B4000DA221200010E8A6F8B6B892B03D0D8909A
:101B50008A378B37892FFBD700011200AB51110D4B
:101B60005F0EF324D96E010EF420DA6EDF501200FE
:101B7000AE2BAE05896F8A6B000E8925D96E010EDA
:101B80008A21DA6E1200110D500E896F010E8A6FD4
:101B9000F3508927F4508A2312003650B40FD96EBF
:101BA000DA6ADF506C6F6D6B1200A3518A17A45173
:101BB0008B178A518B111200856F6C0E7F6F59D174
:101BC000250E881904E088515DEC17F052D1866B20
:101BD000876B846B02D08485852B85C0F6FFA5ECCE
:101BE00010F0300AF8E085C0F6FFA5EC10F003EC29
:101BF00017F001E29FD0866B876B86C060F087C0CC
:101C000061F0636B0A0E626F87EC16F060C086F0BD
:101C100061C087F0D00E786F796985C0F6FFA5ECBA
:101C200010F07A6F7B6B78517A2779517B237A5148
:101C300086277B518723852B85C0F6FFA5EC10F006
:101C400003EC17F077E3D9D77F51D96EDA6ADF500A
:101C5000786F78C07DF07E6B7F2B7D517E1106E121
:101C60009B0E7D6F7D51D8A4110E7E6F826B836BAE
:101C700003D00001824B832B82517D25786F8351E5
:101C80007E21796F78C0F6FF79C0F7FFF86A070EFA
:101C9000F76403D00800F55005D0F6CFE1FFF7CF89
:101CA000E2FFE7500009E5E100018651825D8751BE
:101CB000835905E28251865F8351875B06D0866B2C
:101CC000876B03D0200E5DEC17F000018607D8A0CB
:101CD00087078629F7E1872916E0F4D77DC0F6FF4C
:101CE0007EC0F7FFF86A070EF76403D00800F550CE
:101CF00005D0F6CFE1FFF7CFE2FFE7505DEC17F03C
:101D000000017D4B7E2B8207D8A083078229E6E164
:101D1000832901E1AED0E2D77F51D96EDA6ADF5074
:101D2000886F020E7F27880E7D6F7E6B836B010E9E
:101D3000826FBAD7A3D801E1A0D0630AEDE0070A09
:101D400006E00D0A04E01A0A01E17ED7ECD77F51C4
:101D5000D96EDA6ADECF80F0DDCF81F0020E7F2708
:101D600081AF06D0030E8413806D811FD8B0812B04
:101D7000010E886F050E88190DE08851020DF35091
:101D8000010F88D8F550805D0900F550815902E3B4
:101D9000882BF0D78651871108E084C078F0030EB5
:101DA000781703E08607D8A08707800E88BF7F0ECC
:101DB000786F8651885D8751800A785907E288518B
:101DC000865F000E88BFFF0E875B02D0866B876B35
:101DD00084A514D084C078F0030E781703E02D0E8C
:101DE0005DEC17F00001865187111DE0300E5DECAF
:101DF00017F000018607D8A08707F5D7865187110D
:101E00000AE0200E5DEC17F000018607D8A08707D6
:101E100086518711F6E184C078F0030E781703E04D
:101E20002D0E5DEC17F088C07CF01FD07C51020DA8
:101E3000F350010F2FD8F5CF62F00A00F5CF63F011
:101E400080C060F081C061F066EC15F060C067F0A2
:101E500061C068F06A6B0A0E696FD5EC15F06751C6
:101E6000300F886F88515DEC17F000017C077C29EA
:101E7000DDE1000103D801E0A3D61200852B850522
:101E8000786F78C0F6FF110EF76E0800F5CF88F076
:101E900088511200786F78C0F6FF110EF76E0900B6
:101EA0001200116E010E156E4CD1250E1D1804E0A6
:101EB0001D5062EC17F045D11B6A1C6A1A6A02D0E9
:101EC0001A84112A11C0F6FF40D9300AF9E011C076
:101ED000F6FF3BD911EC17F001E299D01B6A1C6A9E
:101EE0001BC001F01CC002F0046A0A0E036E9AECDB
:101EF00016F001C01BF002C01CF0D00E0D6E0E6873
:101F000011C0F6FF22D90F6E106A0D500F260E5029
:101F100010220F501B2610501C22112A11C0F6FF50
:101F200014D911EC17F073E3DBD71550D96EDA6AC8
:101F3000DF500D6E0DC013F0146A152A13501410E3
:101F400006E19B0E136E1350D8A4110E146E186A7E
:101F5000196A02D0184A192A185013240D6E195004
:101F600014200E6E0DC0F6FF0EC0F7FFF86A070EC4
:101F7000F76403D00800F55005D0F6CFE1FFF7CFA6
:101F8000E2FFE7500009E6E11B50185C1C501958AD
:101F900005E218501B5E19501C5A06D01B6A1C6AB9
:101FA00003D0200E62EC17F01B06D8A01C061B28DD
:101FB000F8E11C2815E0F5D713C0F6FF14C0F7FFB1
:101FC000F86A070EF76403D00800F55005D0F6CF85
:101FD000E1FFF7CFE2FFE75062EC17F0134A142A53
:101FE0001806D8A019061828E7E1192801E1A9D098
:101FF000E3D71550D96EDA6ADF501D6E020E152632
:102000001D0E136E146A196A010E186EBDD7A2D880
:1020100001E19AD0630AEDE0070A05E00D0A03E04A
:102020001A0A83E0EDD71550D96EDA6ADECF16F0C2
:10203000DDCF17F0020E152617AE06D0030E1A12CA
:10204000166C171ED8B0172A010E1D6E050E1D182E
:102050000DE01D50020DF350010F88D8F550165CAD
:102060000900F550175802E31D2AF0D71B501C1029
:1020700008E01AC00DF0030E0D1603E01B06D8A0F1
:102080001C06800E1DBE7F0E0D6E1B501D5C1C506D
:10209000800A0D5807E21D501B5E000E1DBEFF0E8C
:1020A0001C5A02D01B6A1C6A1AA412D01AC00DF066
:1020B000030E0D1603E02D0E62EC17F01B501C10E2
:1020C0001BE0300E62EC17F01B06D8A01C06F6D7FA
:1020D0001B501C1009E0200E62EC17F01B06D8A064
:1020E0001C061B501C10F7E11AC00DF0030E0D1654
:1020F00003E02D0E62EC17F01DC012F01FD012503D
:10210000020DF350010F32D8F5CF03F00A00F5CFDE
:1021100004F016C001F017C002F0B0EC15F001C0D9
:1021200008F002C009F00B6A0A0E0A6EF4EC15F012
:102130000850300F1D6E1D5062EC17F01206122869
:10214000DEE108D801E0B1D61200110EF76E0800EA
:10215000F5501200112A11040D6E0DC0F6FF110E7C
:10216000F76E0800F5CF1DF01D5012000D6E0DC06A
:10217000F6FF110EF76E090012000600DACF22F00A
:10218000F3CF23F0F4CF24F0F6CF25F0F7CF26F0ED
:10219000F8CF27F0F5CF28F09DB09EA01DD09E90DF
:1021A000C00ECF6E2EB606D0356A0001B1832D80E9
:1021B000CD9012D02EA410D0342A050E34180CE184
:1021C0002DB82D8236C002F0020E8BEC15F0F70E02
:1021D00051EC0FF0CD90346AF2BAF2A451D0C20E95
:1021E000D76EF70ED626F2948C722D8E2E803D2A55
:1021F0003B0E3D6445D03D6A3C2A3B0E3C6440D0DA
:102200003C6A3B2A170E3B643BD03B6A3E2A060ED3
:102210003E6402D0010E3E6E3A2A3F503A5C30E3F3
:10222000010E3A6E12D01F0E0BD038C01EF0030EF6
:102230001E261E1602E11D0E03D01C0E01D01E0E1E
:102240003F6E1ED0382A396A1BD0392A3950010A0C
:10225000EAE0030AEAE0010AE6E0070AF0E0010A20
:10226000E2E0030AECE0010ADEE00F0ADCE0010A2A
:10227000E6E0030AD8E0010AE2E0070AD4E0E2D788
:10228000F2B6F2A056D08150F00B316EF290F00E03
:1022900031184CE0F2962D862E868C7081BE02D0CD
:1022A000010E0BD081BC02D0020E07D081BA02D041
:1022B000030E03D081B803D0040E2B6E01D02B6A1D
:1022C0000F0E9316F00E8A1283CF1EF0F00E1E161C
:1022D000FBE1951283A802D0010E0BD083AA02D095
:1022E000020E07D083AC02D0030E03D083AE03D01E
:1022F000040E2C6E01D02C6A2C5009E02B5007E004
:102300002CC001F02B50B3EC12F00001B26FF00EB4
:1023100093120F0E8C160F0E951683CF1EF0F00E33
:102320001E16FBE18150F00BF00AFCE18150F00B2E
:10233000316E9DBA9EAA37D02E94ABA20AD000016E
:10234000B189AE50AB98AB88ABB2FBD72D802D9244
:1023500029D0ABA408D00001B189AE50AB9EAB8EA2
:10236000ABA4F4D7FAD7016AC00E50EC17F0000EF8
:102370003524D96EDA6A010EDA22AECFDFFFCD80C6
:10238000352A500E351809E0FF0E3524D96EDA6A69
:10239000000EDA22460EDE1805E12D82016AC00E1B
:1023A00050EC17F09E9A28C0F5FF27C0F8FF26C012
:1023B000F7FF25C0F6FF24C0F4FF23C0F3FF22C0BF
:1023C000DAFF21C0D9FF20C0E2FF1FC0E1FF1100EA
:1023D00020EEECF010EE75F00B0EDBCFE3FFE8061D
:1023E000FCE20F0E6C27000E6D236CC060F06DC018
:1023F00061F0636B640E626F66EC15F06051816F83
:102400006CC060F06DC061F0636B640E626F66EC6F
:1024100015F060516C5F61516D5B6CC070F0030E24
:10242000702770170BE16E0503E141D8060E05D049
:10243000020E6E1903E13BD8020EDF6E81C060F020
:10244000616B6369FE0E626F87EC16F06CC070F012
:102450006DC071F0D89071337033D8907133703390
:102460006EC072F072077251750FD96EDA6ADF5062
:102470006FC073F0746B7327000E74237051732751
:102480007151742360517327615174236C51732708
:102490006D517423060E7325676F000E7421686FEB
:1024A0006A6B070E696FD5EC15F0675112006EC0AC
:1024B00070F070077051750FD96EDA6A1200636F91
:1024C000010E336E63C032F012D0140E01D0100E24
:1024D000376E15D0140E376E940E2F6ED40E05D0B5
:1024E000100E376E900E2F6ED00E306E08D0325018
:1024F000EEE0010AF5E0030AE8E0010AEBE08D9066
:102500008D924E0E626FEB0EE82EFED7622FFCD737
:1025100000F0030E896E8D828D921A0E0001626F9B
:10252000F80EE82EFED7622FFCD700D08D828D9258
:10253000C80E00F0E82EFDD78D828D92C80E00F0F7
:10254000E82EFDD7020E896E8D828D92280EBFEC8B
:1025500016F00C0EBFEC16F01FEC17F0060EBFECD9
:1025600016F043EF14F0026E0150040DF3500224F4
:10257000FC0F036E21D02A0E1DD0300E1BD0460E4C
:1025800019D0440E17D0370E15D0380E13D0390E8F
:1025900011D0430E0FD0340E0DD0350E0BD0360EA9
:1025A00009D0420E07D0310E05D0320E03D0330EC3
:1025B00001D0410E046E21D00350010ADCE0030A71
:1025C000DCE0010ADCE0070ADCE0010ADCE0030AE7
:1025D000DCE0010ADCE00F0ADCE0010ADCE0030ACF
:1025E000DCE0010ADCE0070ADCE0010ADCE0030AC7
:1025F000DCE0010ADCE01F0ADCE004501200696F35
:10260000686B2AD8685133D868516625606F000E10
:102610006721616F39EC17F0DF6E0001682B1CD861
:1026200068516427000E6523FF0E6425D96EFF0EE6
:102630006521DA6EDF5003E00E0E6865E2D70CD834
:102640000F0E15D80F0E6625606F000E6721616FA3
:1026500039EC17F0DF6E12006951110D62C064F0A1
:1026600063C065F0F3506427F450652312006425BD
:10267000D96E000E6521DA6E6951666F676B663B35
:10268000673BF00E671766510F0B6713F00E661766
:10269000F00C0001646B66EC17F064C060F00001A0
:1026A000616B6451300F626F2DEC16F066EC17F021
:1026B0002CD86451610F626F2DEC16F00001642B71
:1026C000090E6465E8D766EC17F064C060F000019D
:1026D000616B626B2DEC16F066EC17F016D8626B2E
:1026E0002DEC16F066EC17F00001616B0F0E606FB9
:1026F00062692DEC16F066EC17F00001616B1F0E9D
:10270000606FFC0E626F2DEF16F0100E0001642555
:10271000606F616B000E6123000C716F2B0EAD6E4C
:10272000ACA2FED7640E606F715113EC16F0726F9D
:10273000736B7251300FAD6EACA2FED772C060F0F9
:1027400073C061F063699C0E626F87EC16F0715183
:102750006025666F000E6121676F696B0A0E686FF6
:10276000CDEC13F066C06FF067C070F06F51300FA2
:10277000AD6EACA2FED772519C0DF3CF6EF06F51CF
:10278000F60DF3506E257125300FAD6EACA2FED75D
:102790002B0EAD6EACB21200FDD76B6B69AF06D0DD
:1027A000686D691FD8B0692B010E6B6F67AF06D0DB
:1027B000666D671FD8B0672B010E6B1B6C6B6D6B62
:1027C000685169111BE0010E6A6F04D0D890683718
:1027D00069376A2B69AFFAD7D8906C376D37685173
:1027E000665D6951675905E36851665F6951675BCA
:1027F0006C81D890693368336A2FEED76B5104E04F
:102800006C6D6D1FD8B06D2B6CC066F06DC067F03D
:10281000120001EE50F011EE10F0EE6AE550E150BA
:10282000FCE1E250FAE101EE00F0500EEE6AE8063B
:10283000FDE100EEAFF03D0EEE6AE806FDE100EED0
:102840002DF0120EEE6AE806FDE1AE0EF66E2E0ECB
:10285000F76E000EF86E00EEECF010EE0CF00900D2
:10286000F5CFEEFFE550E150FAE1040EF66E100EE2
:10287000F76E000EF86E0900F5CF3FF0000EF86E0F
:102880000001FDEF08F08D90400EBFEC16F08D803A
:102890000E0EBFEC16F00A0EBFEC16F00A0EBFECDF
:1028A00016F00A0EBFEC16F01F0EBFEC16F01B0E52
:1028B000BFEC16F01B0EBFEC16F01F0EBFEC16F0AF
:1028C000030EBFEC16F0020EBFEC16F0020EBFECCA
:1028D00016F0020EBFEC16F01F0EBFEC16F01B0E2A
:1028E000BFEC16F01B0EBFEC16F01F0EBFEC16F07F
:1028F0008D901200646F29D01FEC17F02ED0332A70
:10290000040E33640ED0010E336E0BD0332A020E48
:10291000F8D73250FBE0010AF2E0030AF7E0010ABF
:10292000EEE0010E616F335041EC15F016D0010E50
:10293000336E8D90800EBFEC16F00FD08D80010E9F
:10294000336E6451BFEC16F008D064510A0AE1E01E
:10295000060AD2E0010AEBE0F1D71200656B61AF25
:1029600006D0606D611FD8B0612B010E656F63AF3B
:1029700004D0626D631FD8B0632B6251631117E0FE
:10298000010E646F04D0D89062376337642B63AF55
:10299000FAD76251605D6351615904E36251605F2F
:1029A0006351615BD89063336233642FF2D7655112
:1029B00004E0606D611FD8B0612B60C060F061C041
:1029C00061F01200056E29D02CEC17F02ED0332ABE
:1029D000040E33640ED0010E336E0BD0332A020E78
:1029E000F8D73250FBE0010AF2E0030AF7E0010AEF
:1029F000EEE0010E026E33508BEC15F016D0010E96
:102A0000336E8D90800E47EC16F00FD08D80010E46
:102A1000336E055047EC16F008D005500A0AE1E085
:102A2000060AD2E0010AEBE0F1D7120016D060C02E
:102A3000F6FF61C0F7FFF86A070EF76403D00800DD
:102A4000F55005D0F6CFE1FFF7CFE2FFE750AD6ECE
:102A5000ACA2FED70001604B612B60C0F6FF61C0E5
:102A6000F7FFF86A070EF76403D00800F55005D0A9
:102A7000F6CFE1FFF7CFE2FFE7500009D8B412002C
:102A8000D6D7636F8D9018D061517F0FBFEC16F0D1
:102A90001CD06151BF0FBFEC16F017D061512F242D
:102AA000626F6205BFEC16F010D061513024626F86
:102AB0006205BFEC16F009D06351010AE5E0030A94
:102AC000E8E0010AEBE0070AF0E01200656B666BD4
:102AD000625163111BE0010E646F04D0D89062371D
:102AE0006337642B63AFFAD7D89065376637625186
:102AF000605D6351615905E36251605F6351615BE1
:102B00006581D89063336233642FEED765C060F07F
:102B100066C061F01200046E8D9018D002507F0FD5
:102B200047EC16F01CD00250BF0F47EC16F017D040
:102B300002502F24036E030447EC16F010D002500D
:102B40003024036E030447EC16F009D00450010A48
:102B5000E5E0030AE8E0010AEBE0070AF0E0120012
:102B6000056A066A035004101BE0010E076E04D0CC
:102B7000D89003360436072A04AEFAD7D890053623
:102B800006360350015C0450025805E30350015E11
:102B90000450025A0580D89004320332072EEED733
:102BA00005C001F006C002F0120069516A1117E079
:102BB000010E6B6F04D0D89069376A376B2B6AAF00
:102BC000FAD76951675D6A51685904E36951675FD3
:102BD0006A51685BD8906A3369336B2FF2D767C04C
:102BE00067F068C068F012000A500B1017E0010E81
:102BF0000C6E04D0D8900A360B360C2A0BAEFAD7DE
:102C00000A50085C0B50095804E30A50085E0B5048
:102C1000095AD8900B320A320C2EF2D708C008F0AD
:102C200009C009F01200616F636B605114E0010E7E
:102C3000626F03D0D8906037622B60AFFBD7D8901B
:102C400063376051615D03E36051615F6381D890D8
:102C50006033622FF4D76351120060C0A9FF62C0D5
:102C6000A8FFA69EA69CA684000EF2BE010E636F6E
:102C7000F29E550EA76EAA0EA76EA682A6B2FED72A
:102C800063B102D0F29E01D0F28EA6941200016EC2
:102C9000350EE82EFED700F0F00E8916013806D862
:102CA00001500F0B89128D828D9212000F0B891229
:102CB0008D828D92F00E8916F00C626B636B6351FE
:102CC000100DF3CF60F0F4CF61F039EC17F0FF0A8C
:102CD00002E00001622B0001632B0F0E6365EFD74A
:102CE00062511200636B646B0BD0060E626F300E84
:102CF000E82EFED7622FFCD700D00001634B642B77
:102D00006051635D61516459D8B01200EED76051D3
:102D10006203F3CF64F0F4CF65F060516303F350C6
:102D2000652761516203F350652764C060F065C098
:102D300061F0120001500302F3CF05F0F4CF06F06A
:102D400001500402F350062602500302F3500626F7
:102D500005C001F006C002F01200646F010E656F3D
:102D6000616F645141EC15F005D08D80100EBFEC01
:102D700016F0652B3750655DD8B01200F6D700010C
:102D8000606F350EE82EFED700F0F00E89160001B8
:102D9000603956EC16F060510F0B89128D828D92BE
:102DA000120008D060C0D9FF61C0DAFF000EDF6EEC
:102DB000604B612B60C0D9FF61C0DAFFDF50D8B42F
:102DC0001200F0D70001606FAC98AC84B88660C088
:102DD000AFFFAC9CAB9CAC8A9D9AAB88AB8EB8988D
:102DE0009D98AC9C1200626F6251D00F640DF3CFBE
:102DF00063F06051D00F0A0DF35063276151D00F7B
:102E0000632763511200626F616B3A0E626105D0F5
:102E10002F0E626502D0010E616F61C060F06031FB
:102E20001200036E026A3A0E036005D02F0E03648F
:102E300002D0010E026E02C001F0013012008D902E
:102E4000010EBFEC16F00B0E616F620EE82EFED77E
:102E5000612FFCD700D012008D90010E47EC16F0C8
:102E60000B0E026E620EE82EFED7022EFCD700D0AB
:102E7000120060C0A9FFA69CA69EA68000F000F0EC
:102E8000A8501200616FCD9061C0CFFF60C0CEFF2F
:102E900012000001606F60C0ADFFACB21200FDD740
:102EA000026ECD9002C0CFFF01C0CEFF1200000322
:102EB000030601040602050003050001656F655164
:102EC0007AEF14F0066E0650E2EF14F0A6A212009C
:022ED000FDD72C
:020000040030CA
:0E0000001802381EFF8081FF0FC00FE00F4076
:00000001FF
