:041000000CEF08F0F9
:10100800E9CF21F0EACF22F0D9CF23F0CEED35F0A9
:041018001CEF32F0A7
:105EFE00A6A21200FDD7066E0650B5EF32F00001D5
:085F0E00BD6FBD5181EF32F0BF
:105F17000003030601040602050003051F026ECDF8
:105F27009002C0CFFF01C0CEFF12000001B86FB8CA
:105F3700C0ADFFACB21200FDD7B96FCD90B9C0CFDD
:105F4700FFB8C0CEFF1200B8C0A9FFA69CA69EA6A8
:105F57008000F000F0A85012008D90010E68EC3020
:105F6700F00B0E026E620EE82EFED7022EFCD70053
:105F7700D012008D90010E09EC30F00B0EB96F6254
:105F87000EE82EFED7B92FFCD700D01200036E0201
:105F97006A3A0E036005D02F0E036402D0010E0289
:105FA7006E02C001F001301200BA6FB96B3A0EBA37
:105FB7006105D02F0EBA6502D0010EB96FB9C0B80E
:105FC700F0B831120008D0B8C0D9FFB9C0DAFF0065
:105FD7000EDF6EB84BB92BB8C0D9FFB9C0DAFFDFF7
:105FE70050D8B41200F0D7DA6B010EDB6FDC6FDA32
:105FF700C0C4F0C56BDBC0C6F0DCC0C7F0D7EC345B
:10600700F0E06FDD6BDE6BDF6B12000001B86F3500
:106017000EE82EFED700F0F00E89160001B839778A
:10602700EC30F0B8510F0B89128D828D921200BCA3
:106037006F010EBD6FB96FBC5152EC31F005D08DB9
:1060470080100E09EC30F0BD2B7651BD5DD8B01233
:1060570000F6D701500302F3CF05F0F4CF06F001A5
:10606700500402F350062602500302F35006260599
:10607700C001F006C002F01200B851BA03F3CFBC5A
:10608700F0F4CFBDF0B851BB03F350BD27B951BAF7
:1060970003F350BD27BCC0B8F0BDC0B9F01200BBB8
:1060A7006BBC6B0BD0060EBA6F300EE82EFED7BA5C
:1060B7002FFCD700D00001BB4BBC2BB851BB5DB93F
:1060C70051BC59D8B01200EED7016E350EE82EFE3E
:1060D700D700F0F00E8916013806D801500F0B894A
:1060E700128D828D9212000F0B89128D828D92F084
:1060F7000E8916F00CBB6FBB5102E1300EBB6FB8B7
:106107005102E1300EB86FBB51D00F640DF3CFBA17
:10611700F0B851D00F0A0DF350BA27B951D00FBAC2
:1061270027BA511200B8C0A9FFBAC0A8FFA69EA6F9
:106137009CA684000EF2BE010EBB6FF29E550EA701
:106147006EAA0EA76EA682A6B2FED7BBB102D0F288
:106157009E01D0F28EA6941200B96FBB6BB8511492
:10616700E0010EBA6F03D0D890B837BA2BB8AFFB9F
:10617700D7D890BB37B851B95D03E3B851B95FBB06
:1061870081D890B833BA2FF4D7BB5112000A500BFD
:106197001017E0010E0C6E04D0D8900A360B360C9F
:1061A7002A0BAEFAD70A50085C0B50095804E30AC9
:1061B70050085E0B50095AD8900B320A320C2EF257
:1061C700D708C008F009C009F01200C151C2111761
:1061D700E0010EC36F04D0D890C137C237C32BC2BA
:1061E700AFFAD7C151BF5DC251C05904E3C151BF16
:1061F7005FC251C05BD890C233C133C32FF2D7BF40
:10620700C0BFF0C0C0C0F01200056A066A035004A0
:10621700101BE0010E076E04D0D890033604360732
:106227002A04AEFAD7D890053606360350015C0427
:1062370050025805E30350015E0450025A0580D806
:106247009004320332072EEED705C001F006C002D4
:10625700F01200BD6BBE6BBA51BB111BE0010EBC47
:106267006F04D0D890BA37BB37BC2BBBAFFAD7D89F
:1062770090BD37BE37BA51B85DBB51B95905E3BABE
:1062870051B85FBB51B95BBD81D890BB33BA33BC42
:106297002FEED7BDC0B8F0BEC0B9F01200BB6F8DEE
:1062A7009018D0B9517F0F09EC30F01CD0B951BF0D
:1062B7000F09EC30F017D0B9517125BA6FBA05093B
:1062C700EC30F010D0B9517225BA6FBA0509EC302D
:1062D700F009D0BB51010AE5E0030AE8E0010AEB47
:1062E700E0070AF0E01200046E8D901AD002507F8A
:1062F7000F68EC30F01ED00250BF0F68EC30F01979
:10630700D0025000017125036E030468EC30F011D0
:10631700D0025000017225036E030468EC30F009C7
:10632700D00450010AE3E0030AE6E0010AE9E007C6
:106337000AEFE01200BE6FBF6BBF51100DF3CFB86D
:10634700F0F4CFB9F0A7EC2FF0FF0A16E00001BA7E
:106357002BBFC0BBF0010EBC6FBD6BBB2B03D0D8EE
:1063670090BC37BD37BB2FFBD70001BE51D96EDAC2
:106377006ABC51DE12BD51DD120001BF2B0F0EBFEB
:1063870065DBD70F0C0001B86FAC98AC840FD0B8A1
:1063970086220E08D0B886450E05D0B886670E024D
:1063A700D0B886CF0EAF6E0CD0B896F8D7B851FCE0
:1063B700E0010AF6E0030AF1E0010AECE0070AE768
:1063C700E0B886220EAF6EAC9CAB9CAC8A9D8AABC4
:1063D70088AB8EB8989D98AC9C220C16D0B8C0F6A6
:1063E700FFB9C0F7FFF86A070EF76403D00800F596
:1063F7005005D0F6CFE9FFF7CFEAFFEF50AD6EAC0F
:10640700A2FED70001B84BB92BB8C0F6FFB9C0F749
:10641700FFF86A070EF76403D00800F55005D0F6B9
:10642700CFE9FFF7CFEAFFEF500009D8B41200D643
:10643700D701EE50F011EE20F0EE6AE550E150FC86
:10644700E1E250FAE101EE00F0500EEE6AE806FDD7
:10645700E100EE60F0580EEE6AE806FDE100EE306E
:10646700F00D0EEE6AE806FDE1170EF66E5F0EF709
:106477006E000EF86E00EE3DF010EE0DF00900F51F
:10648700CFEEFFE550E150FAE1000EF86E0001DAB9
:10649700EF39F0BD6BB9AF06D0B86DB91FD8B0B939
:1064A7002B010EBD6FBBAF04D0BA6DBB1FD8B0BBFD
:1064B7002BBA51BB1117E0010EBC6F04D0D890BAAC
:1064C70037BB37BC2BBBAFFAD7BA51B85DBB51B995
:1064D7005904E3BA51B85FBB51B95BD890BB33BA23
:1064E70033BC2FF2D7BD5104E0B86DB91FD8B0B98E
:1064F7002BB8C0B8F0B9C0B9F01200BC6F29D0BD35
:10650700EC2FF02ED0752B040E75650ED0010E758D
:106517006F0BD0752B020EF8D77451FBE0010AF20E
:10652700E0030AF7E0010AEEE0010EB96F75515278
:10653700EC31F016D0010E756F8D90800E09EC309E
:10654700F00FD08D80010E756FBC5109EC30F0084B
:10655700D0BC510A0AE1E0060AD2E0010AEBE0F1F9
:10656700D71200056E2CD0B0EC2FF031D0752B046C
:106577000E75650FD0010E756F0CD0752B020EF8D6
:10658700D700017451FAE0010AF1E0030AF6E001CD
:106597000AEDE0010E026E755177EC31F018D0016B
:1065A7000E0001756F8D90800E68EC30F010D08D65
:1065B70080010E0001756F055068EC30F008D005BA
:1065C700500A0ADEE0060ACFE0010AE9E0F0D71236
:1065D700008D90400E09EC30F08D800E0E09EC30E6
:1065E700F00A0E09EC30F00A0E09EC30F00A0E0939
:1065F700EC30F01F0E09EC30F01B0E09EC30F01BED
:106607000E09EC30F01F0E09EC30F0030E09EC30E8
:10661700F0020E09EC30F0020E09EC30F0020E0920
:10662700EC30F01F0E09EC30F01B0E09EC30F01BBC
:106637000E09EC30F01F0E09EC30F08D901200C3FC
:106647006BC1AF06D0C06DC11FD8B0C12B010EC33F
:106657006FBFAF06D0BE6DBF1FD8B0BF2B010EC333
:106667001BC46BC56BC051C1111BE0010EC26F0487
:10667700D0D890C037C137C22BC1AFFAD7D890C492
:1066870037C537C051BE5DC151BF5905E3C051BEC3
:106697005FC151BF5BC481D890C133C033C22FEEF5
:1066A700D7C35104E0C46DC51FD8B0C52BC4C0BE45
:1066B700F0C5C0BFF012000001C96F2B0EAD6EAC64
:1066C700A2FED7640E0001B86FC951B0EC30F0CA12
:1066D7006FCB6BCA51300FAD6EACA2FED7CAC0B834
:1066E700F0CBC0B9F0BB699C0EBA6F40EC30F0C973
:1066F70051B825BE6F000EB921BF6FC16B0A0EC01E
:106707006F23EC33F0BEC0C7F0BFC0C8F0C751302D
:106717000FAD6EACA2FED7CA519C0DF3CFC6F0C722
:1067270051F60DF350C625C925300FAD6EACA2FE4C
:10673700D72B0EAD6EACB21200FDD70001BC6B7F3C
:10674700EC2FF0BCC0B8F00001B96BBC51300FBAE8
:106757006F96EC30F07FEC2FF02CD8BC51610FBA5C
:106767006F96EC30F00001BC2B090EBC65E8D77FB3
:10677700EC2FF0BCC0B8F00001B96BBA6B96EC30E7
:10678700F07FEC2FF016D8BA6B96EC30F07FEC2F39
:10679700F00001B96B0F0EB86FBA6996EC30F07F55
:1067A700EC2FF00001B96B1F0EB86FFC0EBA6F9695
:1067B700EF30F0100E0001BC25B86FB96B000EB9B1
:1067C70023000C026E0150040DF3500224FC0F034A
:1067D7006E21D02A0E1DD0300E1BD0460E19D04484
:1067E7000E17D0370E15D0380E13D0390E11D043EF
:1067F7000E0FD0340E0DD0350E0BD0360E09D04209
:106807000E07D0310E05D0320E03D0330E01D04122
:106817000E046E21D00350010ADCE0030ADCE0011C
:106827000ADCE0070ADCE0010ADCE0030ADCE0013D
:106837000ADCE00F0ADCE0010ADCE0030ADCE00125
:106847000ADCE0070ADCE0010ADCE0030ADCE0011D
:106857000ADCE01F0ADCE004501200C16FC06B3293
:10686700D8C0513BD8C051BE25B86F000EBF21B963
:106877006FA7EC2FF0DF6E0001C02B24D8C051BCEE
:1068870027000EBD23FF0EBC25D96EFF0EBD21DAF2
:106897006EDF5003E00E0EC065E2D714D8100EBCB1
:1068A70025D96E000EBD21DA6EDF6A0CD8110E15E0
:1068B700D80F0EBE25B86F000EBF21B96FA7EC2FFA
:1068C700F0DF6E1200C151120DBAC0BCF0BBC0BDE3
:1068D700F0F350BC27F450BD231200BC25D96E003D
:1068E7000EBD21DA6EC151BE6FBF6BBE3BBF3BF021
:1068F7000EBF17BE510F0BBF13F00EBE17F00CBB28
:106907006F010E756FBBC074F012D0140E01D0105A
:106917000E766F15D0140E766F940E716FD40E0528
:10692700D0100E766F900E716FD00E726F08D07404
:1069370051EEE0010AF5E0030AE8E0010AEBE08D19
:10694700908D924E0EBA6FEB0EE82EFED7BA2FFC43
:10695700D700F0030E896E8D828D921A0E0001BA50
:106967006FF80EE82EFED7BA2FFCD700D08D828D98
:1069770092C80E00F0E82EFDD78D828D92C80E00CA
:10698700F0E82EFDD7020E896E8D828D92280E09B2
:10699700EC30F00C0E09EC30F0BDEC2FF0060E09D0
:1069A700EC30F0ECEF32F020EE3DF010EECDF00BD6
:1069B7000EDBCFE3FFE806FCE20F0EC427000EC58F
:1069C70023C4C0B8F0C5C0B9F0BB6B640EBA6F2D55
:1069D700EC31F0B851D96FD951640DF350C45FF45D
:1069E70050C55BC4C0C8F0030EC827C8170BE1C663
:1069F7000503E141D8060E05D0020EC61903E13B97
:106A0700D8020EDF6ED9C0B8F0B96BBB69FE0EBAFB
:106A17006F40EC30F0C4C0C8F0C5C0C9F0D890C909
:106A270033C833D890C933C833C6C0CAF0CA07CAF7
:106A370051CD0FD96EDA6ADF50C7C0CBF0CC6BCB24
:106A470027000ECC23C851CB27C951CC23B851CB33
:106A570027B951CC23C451CB27C551CC23060ECB24
:106A670025BF6F000ECC21C06FC26B070EC16FE947
:106A7700EC30F0BF511200C6C0C8F0C807C851CDEE
:106A87000FD96EDA6A1200BB6FE20EB86F7F0EB9CC
:106A97006FF1EC31F0610E0001BB190DE1D30EB8B7
:106AA7006F7F0EB96FF1EC31F0BAC0B8F00001B9E1
:106AB7006BF1EC31F06ED0620EBB190DE1C90EB867
:106AC7006F7F0EB96FF1EC31F0BAC0B8F00001B9C1
:106AD7006BF1EC31F05ED0630EBB1910E1CE0EB84E
:106AE7006F7F0EB96FF1EC31F0BAC0B8F00001B9A1
:106AF7006BF1EC31F03F0E99EC2FF04BD0640EBBED
:106B07001907E1990EB86F7F0EB96FF1EC31F041BB
:106B1700D0650EBB1907E18D0EB86F7F0EB96FF107
:106B2700EC31F037D0660EBB1907E1A50EB86F7FC1
:106B37000EB96FF1EC31F02DD0670EBB1907E1AB41
:106B47000EB86F7F0EB96FF1EC31F023D0680EBB32
:106B57001907E1930EB86F7F0EB96FF1EC31F01999
:106B6700D0690EBB1907E19F0EB86F7F0EB96FF1A1
:106B7700EC31F00FD06B0EBB190CE1E60EB86F7F4E
:106B87000EB96FF1EC31F0BAC0B8F00001B96BF192
:106B9700EC31F012000600DACF24F0F3CF25F0F441
:106BA700CF26F0F6CF27F0F7CF28F0F8CF29F0F56A
:106BB700CF2AF09DB09EA032D09E90016AC00E925F
:106BC700EC2FF038A405D03B6A000170833780268C
:106BD700D038A810D038C01FF0100E1F16010E2095
:106BE7006E1F2A02D0D89020361F2EFCD7201C38C3
:106BF700163B6A14D038A612D03A2A050E3A180E58
:106C0700E137B837823CC002F0020E77EC31F0FD75
:106C17000E0D6E7F0E0E6E11EC37F03A6AF2BAF275
:106C2700A451D0378E3880C20ED76EF70ED626F213
:106C3700948C72352A3B0E356445D0356A342A3B2D
:106C47000E346440D0346A332A170E33643BD03392
:106C57006A362A060E366402D0010E366E322A498B
:106C670050325C30E3010E326E12D01F0E0BD03063
:106C7700C01FF0030E1F261F1602E11D0E03D01CB6
:106C87000E01D01E0E496E1ED0302A316A1BD0313C
:106C97002A3150010AEAE0030AEAE0010AE6E007BE
:106CA7000AF0E0010AE2E0030AECE0010ADEE00F85
:106CB7000ADCE0010AE6E0030AD8E0010AE2E0079D
:106CC7000AD4E0E2D7F2B6F2A056D08150F00B39E1
:106CD7006EF290F00E39184CE0F296378638868CB3
:106CE7007081BE02D0010E0BD081BC02D0020E070C
:106CF700D081BA02D0030E03D081B803D0040E2E80
:106D07006E01D02E6A0F0E9316F00E8A1283CF1FD4
:106D1700F0F00E1F16FBE1951283A802D0010E0BAF
:106D2700D083AA02D0020E07D083AC02D0030E0391
:106D3700D083AE03D0040E2F6E01D02F6A2F5009D7
:106D4700E02E5007E02FC001F02E50E5EC33F000A5
:106D570001736FF00E93120F0E8C160F0E9516839C
:106D6700CF1FF0F00E1F16FBE18150F00BF00AFC6D
:106D7700E18150F00B396E9DBA9EAA3AD03884381B
:106D870096ABA20AD000017089AE50AB98AB88AB26
:106D9700B2FBD7378037922BD0ABA408D000017055
:106DA70089AE50AB9EAB8EABA4F4D7FAD7016AC0BD
:106DB7000E92EC2FF0AECF2DF0000E3B24D96EDAF9
:106DC7006A010EDA222DC0DFFFCD803B2A500E3B31
:106DD7001809E0FF0E3B24D96EDA6A000EDA224664
:106DE7000EDE1805E13782016AC00E92EC2FF09E85
:106DF7009A2AC0F5FF29C0F8FF28C0F7FF27C0F679
:106E0700FF26C0F4FF25C0F3FF24C0DAFF23C0D953
:106E1700FF22C0EAFF21C0E9FF11000F0E166E40E6
:106E2700D1250E1E1804E01E5082EC2FF039D11C1C
:106E37006A1D6A1B6A03D01B840D4A0E2A40D9308B
:106E47000AFAE03DD9CAEC2FF001E294D01C6A1D82
:106E57006A1CC001F01DC002F0046A0A0E036E2D01
:106E6700EC30F001C01CF002C01DF0D00E0F6E1008
:106E77006826D9116E126A0F50112610501222116E
:106E8700501C2612501D220D4A0E2A19D9CAEC2F62
:106E9700F071E3DED71650D96EDA6ADF500F6E0F46
:106EA700C014F0156A162A1450151004E17F0E1449
:106EB7006E7F0E156E196A1A6A02D0194A1A2A19B4
:106EC7005014240F6E1A501520106E0FC0F6FF10C5
:106ED700C0F7FFF86A070EF76403D00800F55005FE
:106EE700D0F6CFE9FFF7CFEAFFEF500009E6E11C44
:106EF70050195C1D501A5805E219501C5E1A501D96
:106F07005A06D01C6A1D6A03D0200E82EC2FF01C93
:106F170006D8A01D061C28F8E11D2815E0F5D71492
:106F2700C0F6FF15C0F7FFF86A070EF76403D0082D
:106F370000F55005D0F6CFE9FFF7CFEAFFEF508213
:106F4700EC2FF0144A152A1906D8A01A061928E7B3
:106F5700E11A2801E1A5D0E3D71650D96EDA6ADF26
:106F6700501E6E020E16261E0E146E156A1A6A0140
:106F77000E196EBDD70DC0F6FFA9D801E196D063F3
:106F87000AEBE0070A05E00D0A03E01A0A83E0EBC3
:106F9700D71650D96EDA6ADECF17F0DDCF18F002B8
:106FA7000E162618AE06D0030E1B12176C181ED825
:106FB700B0182A010E1E6E050E1E180AE01E507626
:106FC700D8F550175C0900F550185802E31E2AF34C
:106FD700D71C501D1008E01BC00FF0030E0F16033F
:106FE700E01C06D8A01D06800E1EBE7F0E0F6E1C6D
:106FF700501E5C1D50800A0F5807E21E501C5E0091
:107007000E1EBEFF0E1D5A02D01C6A1D6A1BA4125B
:10701700D01BC00FF0030E0F1603E02D0E82EC2FCE
:10702700F01C501D101BE0300E82EC2FF01C06D810
:10703700A01D06F6D71C501D1009E0200E82EC2F6C
:10704700F01C06D8A01D061C501D10F7E11BC00F31
:10705700F0030E0F1603E02D0E82EC2FF01EC01367
:10706700F01CD0135023D8F5CF03F00A00F5CF0456
:10707700F017C001F018C002F008EC31F001C008A9
:10708700F002C009F00B6A0A0E0A6ECAEC30F0086B
:1070970050300F1E6E1E5082EC2FF013061328E19E
:1070A700E10DC0F6FF13D801E0BBD61200020D9721
:1070B7000EF324F66E7E0EF420F76E090012000D13
:1070C700C0F6FF0EC0F7FF0800F55012000EC0F71C
:1070D700FF0D4A0E2A0800F5CF1EF01E501200C6FB
:1070E7000ED96F4DD1250EE11904E0E15186EC2F41
:1070F700F046D1DF6BE06BDE6B03D0DE85C44BC59A
:107107002B47D9300AFAE044D9D8EC2FF001E2989E
:10711700D0DF6BE06BDFC0B8F0E0C0B9F0BB6B0A43
:107127000EBA6F40EC30F0B8C0DFF0B9C0E0F0D075
:107137000ED26FD3692DD9D46FD56BD251D427D343
:1071470051D523D451DF27D551E023C44BC52B207C
:10715700D9D8EC2FF075E3DED7D951D96EDA6ADFCB
:1071670050D26FD2C0D7F0D86BD92BD751D81104D2
:10717700E17F0ED76F7F0ED86FDC6BDD6B03D0001E
:1071870001DC4BDD2BDC51D725D26FDD51D821D364
:107197006FD2C0F6FFD3C0F7FFF86A070EF7640394
:1071A700D00800F55005D0F6CFE9FFF7CFEAFFEF9B
:1071B700500009E5E10001DF51DC5DE051DD5905D3
:1071C700E2DC51DF5FDD51E05B06D0DF6BE06B0394
:1071D700D0200E86EC2FF00001DF07D8A0E007DFF4
:1071E70029F7E1E02916E0F4D7D7C0F6FFD8C0F7B2
:1071F700FFF86A070EF76403D00800F55005D0F6CC
:10720700CFE9FFF7CFEAFFEF5086EC2FF00001D769
:107217004BD82BDC07D8A0DD07DC29E6E1DD290107
:10722700E1AED0E2D7D951D96EDA6ADF50E16F0209
:107237000ED927E10ED76FD86BDD6B010EDC6FBA65
:10724700D7C4C0F6FFC5C0F7FFAAD801E1A0D06335
:107257000AE9E0070A06E00D0A04E01A0A01E17CE0
:10726700D7E8D7D951D96EDA6ADECFDAF0DDCFDBCE
:10727700F0020ED927DBAF06D0030EDE13DA6DDB83
:107287001FD8B0DB2B010EE16F050EE1190BE0E112
:10729700515AEC38F0F550DA5D0900F550DB590228
:1072A700E3E12BF2D7DF51E01108E0DEC0D2F003B3
:1072B7000ED21703E0DF07D8A0E007800EE1BF7FFB
:1072C7000ED26FDF51E15DE051800AD25907E2E14A
:1072D70051DF5F000EE1BFFF0EE05B02D0DF6BE026
:1072E7006BDEA514D0DEC0D2F0030ED21703E02D5B
:1072F7000E86EC2FF00001DF51E0111DE0300E8605
:10730700EC2FF00001DF07D8A0E007F5D7DF51E049
:10731700110AE0200E86EC2FF00001DF07D8A0E06D
:1073270007DF51E011F6E1DEC0D2F0030ED21703FA
:10733700E02D0E86EC2FF0E1C0D6F01DD0D6515AC5
:10734700EC38F0F5CFBAF00A00F5CFBBF0DAC0B8E9
:10735700F0DBC0B9F02DEC31F0B8C0BFF0B9C0C058
:10736700F0C26B0A0EC16FE9EC30F0BF51300FE18C
:107377006FE15186EC2FF00001D607D629DFE1C473
:10738700C0F6FFC5C0F7FF00010AD801E0ABD6126F
:1073970000C4C0F6FFC5C0F7FF0800F5501200C4CF
:1073A7004BC52B0800F5CFE1F0E15112000001F4C5
:1073B7006BF56BF66BEB6BE96BF16BF06BF26BEEEE
:1073C7006BEF6BF00ED36EE00EF26EF16A210E9D3D
:1073D7006ED09E870ED56EC20ED76EF70ED66E8C08
:1073E7006AF00E936E926A040E966E0F0E8A6ECF37
:1073F7000E946E956AC168070EB46E0E0ECD6EC000
:107407000ECF6ECE6A9D80B96BB86BA7EC2FF0FFDD
:107417000AD8B4A1EC33F0040EC6EC31F0F00EBA82
:107427006FEE0E9EEC31F0EF6B030EEE6F020EF077
:107437006F0A0E99EC2FF00001F0515FEC33F0F674
:107447006B20D0500EBA6F010EBB6FF65131EC3482
:10745700F00001F651120D500EF324B86F010EF42F
:1074670020B96FF1EC31F000012AEC3FF05FEC330B
:10747700F0F6C0E2F0F4EC3EF0E351EE13E451EF26
:1074870013F62BF051F65DDDE3F66B9D8A20EE30A7
:10749700F000EEDAF0060EDBCFEBFFE806FCE2F7D2
:1074A700EC2FF081CF39F0F286F290F16B030E8367
:1074B700EC34F0140EB96F010E52EC31F020EC3FB2
:1074C700F073EC38F037A239D23792D80E0001B8F2
:1074D7006F7F0EB96FF1EC31F03B505FEC33F03852
:1074E700A482D10A0E99EC2FF0000E0001B86F01AB
:1074F7000EB96FF1EC31F00A0E99EC2FF0000E0087
:1075070001F76F010EF86FEC6BF46BF96BEC6B64C2
:10751700D1EC5104E1000EF76F010EF86FEA0EB8D7
:107527006F7F0EB96FF1EC31F00001EC515FEC3376
:10753700F0F7C0D9FFF8C0DAFFDF5099EC2FF00061
:107547000170510EE0620EB86F7F0EB96FF1EC312A
:10755700F00001F4515FEC33F0F9515FEC33F04088
:10756700D1F7C0D9FFF8C0DAFF3E0EDE180BE102F3
:107577000EF41905E100EC3FF0DF50D8A4708DF44C
:107587002BF96B27D1F4510AE1F7C0D9FFF8C0DA1C
:10759700FF490EDE1801E11DD1708F1BD1F4053CA8
:1075A700E1F7C0D9FFF8C0DAFFDF50F56FF74BF806
:1075B7002BF7C0D9FFF8C0DAFF300EDE18D8A47059
:1075C7008FF74BF82B11EC3FF0300E7EEC30F0F6D6
:1075D7006F110EF66107D0F6C0E2F0F4EC3EF0440E
:1075E700EC3FF0D8B470852AEC3FF0E26F000EB89C
:1075F7006FF5C0B9F07EEC30F0E36F010EE46FE396
:107607002B02D0D890E437E32FFCD70001E451E2F6
:107617001501E0DFD07087DDD0020EF41913E1EC1D
:10762700DBF7C0E1FFF8C0E2FFDE50E618D8A47030
:107637008DF92B110EF91901E0CCD0708FF9515F3C
:10764700EC33F0C7D0030EF41901E0A1D0300EF5EA
:107657001903E0320EF5191CE1F7C0D9FFF8C0DABB
:10766700FFDF50E26FE36BF951E46FE56B4E0EE419
:1076770027000EE523E251E41903E1E351E519D8A8
:10768700A4708FF9514E0F99EC2FF00001F92BA13F
:10769700D0350EF56526D0F95114E1370EF51903EB
:1076A700E1F6C0EBF00ED0000EB86FF7C0D9FFF8C7
:1076B700C0DAFFDF50B96F000E7EEC30F0EB6FF7EA
:1076C7004BF82BF7C0D9FFF8C0DAFFF951600FE18B
:1076D7006EE26ADFCFE7FFF92B100EF91901E15CC3
:1076E700D778D0340EF51932E1F95102E1B10EEA3B
:1076F7006F94DB000E7EEC30F0ED6F040EF9610342
:10770700D03D0EED610BD0F90503E10D0EED6106DD
:10771700D0020EF91905E1ED51495C02E270810FC3
:10772700D0EA51D96EDA6AEDC0DFFFEA51F925D9FF
:107737006EDA6ADF505FEC33F0B1515FEC33F0F98A
:107747002B060EF96501D028D7EA2B43D0350EF565
:107757001940E1F9510DE1F7C0D9FFF8C0DAFFDFB1
:1077670050E96FF74BF82BA00EB86FB96BE6EC2F0B
:10777700F0F7C0D9FFF8C0DAFFF951A00FE16EE2C8
:107787006ADFCFE7FFF92B110EF96523D005D70480
:107797000EF4191FE1F7C0D9FFF8C0DAFF460EDE75
:1077A700181FE0708FC30EB86F7F0EB96FF1EC3101
:1077B700F0F7C0D9FFF8C0DAFFDF505FEC33F02FE6
:1077C700EEFFF0F751D926F851DA22DF505FEC339C
:1077D700F007D0F74BF82BEC2B3B50EC5D01E29810
:1077E700D63B6A3780AAD038A6A8D037A820D0B809
:1077F7006BC00EA0EC2FF077511AE02F0EF2651731
:10780700D03A0EF26114D03C50780FD96EDA6AF292
:1078170051030DF3507725CD0FDF6E776B7351F260
:107827001904E073C0F2F0CD8008D0F26B06D03CAB
:1078370050780FD96EDA6A73C0DFFF776B736BDD31
:107847000EC46F7F0EC56F780EC66F73EC38F011DC
:10785700DB1BE03C500DE03CC0B9F0020E52EC31AE
:10786700F0EE0EC46F7F0EFCDA73EC38F0CD800CAF
:10787700D03C28B96F020E52EC31F0EF0EC46F7F87
:107887000EEFDA73EC38F0F2D7F4DA04E03C2A278B
:107897000E3C1853E1B86BC00EA0EC2FF03C5078AB
:1078A7000FD96EDA6ADF6A78510A0DF3507925F03D
:1078B7000FF66F020EF16F0F0EF66502D070850896
:1078C700D0360EF51905E0F6C0E2F08ADAD9DAF615
:1078D700E0070E3C6001D0708F020E1BEC30F020E9
:1078E700D0F651120DFE0EE26FE369500EE46F0100
:1078F7000EE56FE251E427E351E523F350E427F463
:1079070050E523F151E425D96E000EE521DA6EF139
:1079170051780FE16EE26ADE50E618D8A4708DF157
:107927002B120EF16109D0F151760FD96EDA6ADFA9
:107937005003E0010E7065D4D7378E37A0BCD1371E
:10794700900001F16B000EB86F010EB96FE6EC2FD6
:10795700F0780EB86FB96BE6EC2FF038A663D070ED
:107967005143E1030E1BEC30F0240EC46F7F0EC5AC
:107977006F73EC38F0030EB96F200EB86F53EC300D
:10798700F0E86B15D0E82B060EE81902E1708B11B1
:10799700D08B88010EB96F5E0EB86F53EC30F08450
:1079A700B405D0B96B640EB86F53EC30F08B988484
:1079B700A4E9D7140EB96F010E52EC31F03DDA731A
:1079C700EC38F0030E1BEC30F084B407D0FF0EC484
:1079D7006F7E0EC56F73EC38F06ED1460EC46F7FA5
:1079E7000EC56F73EC38F067D1030E1BEC30F070E7
:1079F700AF07D0D80EC46F7E0EC56F73EC38F05B3F
:107A0700D170A507D0C20EC46F7E0EC56F73EC3858
:107A1700F052D170AD50D1120EC46F7F0EC56F7387
:107A2700EC38F049D138A447D1F50EB86F7F0EB9BD
:107A37006FF1EC31F00001705101E001D1040EF457
:107A47001901E0FDD0F46B8C74F80EB86F7F0EB996
:107A57006FF1EC31F0320E0001F51958E1B70EB8AD
:107A67006F7F0EB96FF1EC31F030505FEC33F0BD42
:107A77000EB86F7F0EB96FF1EC31F031505FEC3318
:107A8700F0550EB86F7F0EB96FF1EC31F036505FDD
:107A9700EC33F0B10EB86F7F0EB96FF1EC31F03205
:107AA700505FEC33F0860EB86F7F0EB96FF1EC3193
:107AB700F033505FEC33F0760EB86F7F0EB96FF18D
:107AC700EC31F034505FEC33F06C0EB86F7F0EB9C9
:107AD7006FF1EC31F035505FEC33F0EC0EB86F7EA0
:107AE7000EB96FF1EC31F00001F0515FEC33F03576
:107AF7000EB86F7F0EB96FF1EC31F0100E5FEC33FB
:107B0700F0010E84A4000E5FEC33F0CFD0340EF5F5
:107B1700191DE1F29AC20ED76EF70ED66EB1C030BC
:107B2700F0B2C031F0B3C032F0B4C033F0B5C034F6
:107B3700F0B5C035F030C0C4F0C56B31C0C6F03207
:107B4700C0C7F0D7EC34F0366EF28AAFD0350EF5F9
:107B5700191BE138C0E2F0100EE217010EE36FE2E5
:107B67002B02D0D890E337E22FFCD70001E351383E
:107B770012A00EB86FB96BF1EC31F0A00E0001BA8C
:107B87006FE95147EC35F091D0370EF51903E03620
:107B97000EF51949E1EBC0E2F023D9E351EE13E406
:107BA70051EF13F36BF351600FD96EDA6AEB511291
:107BB7000D500EE26F010EE36FF350E227F450E32E
:107BC70023F351E225E16E000EE321E26EDFCFE7FA
:107BD700FF7FEC2FF00001EB51E26FE36BE23BE339
:107BE7003BF00EE317E2510F0BE313F00EE217F32E
:107BF70051E225B86F000EE321B96FF351600FD939
:107C07006EDA6ADF50BA6F96EC30F0A6B2FED70094
:107C170001F32BF3515F0FD96EDA6ADF5046E00F9D
:107C27000EF365C0D742D0300EF5193FE18B8801BE
:107C37000EB96F900EB86F53EC30F08B9836D0F4C6
:107C47006B450E99EC2FF0000170A103D0560E99E9
:107C5700EC2FF0000170A303D0580E99EC2FF00021
:107C67000170AB03D0410E99EC2FF0000170A70310
:107C7700D04E0E99EC2FF0000170AF03D0500E9943
:107C8700EC2FF0000170A903D0430E99EC2FF00000
:107C97000170AD03D0530E99EC2FF0000170A503CE
:107CA700D0490E99EC2FF00001706B460E99EC2F1E
:107CB700F081CF39F0F2868150F00BF00AD8B4F298
:107CC700B655D037B638A652D00001B96B640EB896
:107CD7006F53EC30F02F0E736503D0390E73652D9B
:107CE700D0B86BC00EA0EC2FF073C0F2F0460E7345
:107CF7001902E1378236D0410E731902E1100E04E2
:107D0700D02A0E731903E1200E371A2BD0440E73B5
:107D17001928E13C50D8A43C063C50780FD96EDABC
:107D27006ADF6A3CC0B9F0020E52EC31F0FB0EC4B8
:107D37006F7F0EC56F73EC38F014D037A8DAD7739E
:107D470051F2190BE1772B030E7719D3E0020E7767
:107D57001908E1390E7319CDE004D07751CAE173E0
:107D6700C0F2F037B8CD8081CF39F0F28637AE292F
:107D7700D0379E38A026D0A10E0001C46F7E0EC555
:107D87006F33C0C6F0C76B34C0C8F0C96B35C0CA03
:107D9700F0CB6B32C0CCF0CD6B31C0CEF0CF6B0FD8
:107DA7000E3024B86FB96B000EB923BB6B640EBAE3
:107DB7006F4DEC32F0B8C0D0F0B9C0D1F073EC38E9
:107DC700F0389037AE37B266EF3AF037A0F2A666D2
:107DD700EF3AF09DAA66EF3AF0030000F066EF3A3B
:107DE700F0010EE36FE46BE22B03D0D890E337E4A6
:107DF70037E22FFBD700011200F651120D500EE2A9
:107E07006F010EE36FF350E227F450E323F951E2D9
:107E170025D96E000EE321DA6E1200F7C0D9FFF8FC
:107E2700C0DAFFDF50B86FF74BF82BF7C0D9FFF870
:107E3700C0DAFFDF50B96F1200EF0EC46F7F0EC5B7
:107E47006F010E84A4000EC66FC76B1200F65112A5
:107E57000D610EF324D96E010EF420DA6EDF501295
:107E670000C56F3C50780FD96EDA6ADF50C66FC70E
:107E77006B12003C50780FD96EDA6A460EDE181284
:107E870000EE51E317EF51E417E351E4111200003C
:107E970001000A006400E80310270A0A0A253032A5
:107EA700643A253032643A253032642D2530326405
:107EB7002E253032642E25303264000A0A436F6E55
:107EC7007461206E616F206578697374656E74657F
:107ED700000A0A4572726F2064652070726F746FB2
:107EE700636F6C6F000A7174645F746F74616C5FA9
:107EF700636F6E7461733A000A0A4572726F206489
:107F070065206162657274757261000A0A53656E55
:107F1700686120696E636F7272657461000A0A4452
:107F2700657374726176616E646F2E2E2E000A710E
:107F370074645F6D61785F636F6E7461733A000A92
:107F47000A506F72746120616265727461000A641D
:107F570069615F73656D616E613A000A657461708E
:107F6700615F653A000A736567756E646F3A000A68
:107F77006D696E75746F3A00286E756C6C29000A0E
:107F8700686F72613A00444953433F005241444489
:107F97003F00414444523F00534C45455000524531
:107FA700534554005354415254000A6469613A00DE
:107FB7000A616E6F3A000A6D65733A00462D657364
:107FC70070004241554400524F4C45004E414D45CB
:107FD700007174643A000A0A25730041542B004368
:107FE7004F4E000A693A002A2563004154000A49A6
:0A7FF700004F4B0020002A0000FF9D
:020000040030CA
:0E0000001802381EFF8081FF0FC00FE00F4076
:00000001FF
