:041000000CEF08F0F9
:10100800D9CF14F0DACF15F0F3CF16F07AED3BF024
:041018000EEF39F0AE
:066F1000A6A21200FDD74D
:106F17000003030601040602050003051FC5CF1D74
:106F2700F01F0E1D16D8B4C7B4F9D71F0C1DC0A982
:106F3700FFA69CA69EA68000F000F0A85012001E97
:106F47006E3F0EC716C66AC56A1E50C6121D50C7C9
:106F57001293829380C68A1200C6500F0B080A0448
:106F6700E0C6500F0B0B0AD8B4C586C7A0FED7C919
:106F7700501200276E226A216A2750EAEC37F01D6B
:106F8700C023F01EC024F0275034EF38F01F6E1FC7
:106F970050D00F640DF3CF20F01D50D00F0A0DF322
:106FA7005020261E50D00F2026205012001D6EACF8
:106FB70098AC84B8861DC0AFFFAC9CAB9CAC8A9DD7
:106FC7009AAB88AB8EB8989D98AC9C1200206E2027
:106FD700C01FF001D01F2A1F50D96EDA6ADF50FA9E
:106FE700E120501F5C1D6E1E6A1DBE1E06120001A9
:106FF700500302F3CF05F0F4CF06F001500402F37B
:1070070050062602500302F350062605C001F0067B
:10701700C002F012001D501F02F3CF21F0F4CF225F
:10702700F01D502002F35022261E501F02F350225B
:107037002621C01DF022C01EF012001F6A206A2000
:1070470050100DF3CF1DF0F4CF1EF09AEC37F0FF80
:107057000AD8A41F2A202A0F0E2064F1D71F501226
:1070670000266E26C025F006D02550D96EDA6A2193
:10707700C0DFFF252A2306D8A024062328F5E1240C
:1070870028D8B41200F1D7206A216A0AD0060E1F49
:107097006E300EE82EFED71F2EFCD700D0204A21D7
:1070A7002A1D50205C1E502158D8B01200EFD7027D
:1070B7006E046A015014E0010E036E03D0D89001EC
:1070C70036032A01AEFBD7D89004360150025C0381
:1070D700E30150025E0480D8900132032EF4D704F6
:1070E7005012001DC0A9FF1FC0A8FFA69EA69CA600
:1070F70084000EF2BE010E206EF29E550EA76EAAF8
:107107000EA76EA682A6B2FED720B002D0F29E01CD
:10711700D0F28EA69412001E6E206A1D5014E00154
:107127000E1F6E03D0D8901D361F2A1DAEFBD7D871
:107137009020361D501E5C03E31D501E5E2080D834
:10714700901D321F2EF4D7205012002550261017FD
:10715700E0010E276E04D0D89025362636272A263A
:10716700AEFAD72550235C2650245804E325502334
:107177005E2650245AD89026322532272EF2D7235E
:10718700C023F024C024F012001E6E1EC0C9FFC623
:10719700BE1BD0C6500F0B080A0AE0C6500F0B0BD8
:1071A7000A06E0C6889EA6FED7C7A4C7500DD0C65C
:1071B700500F0B080A04E0C6500F0B0B0A05E1C776
:1071C700B0FED792EC37F0C5501200226A236A1F2F
:1071D7005020101BE0010E216E04D0D8901F3620DE
:1071E70036212A20AEFAD7D890223623361F501DD3
:1071F7005C20501E5805E31F501D5E20501E5A226A
:1072070080D89020321F32212EEED722C01DF023C6
:10721700C01EF0120000EEEBF011EE10F0EE6AE582
:1072270050E150FCE1E250FAE100EE60F0640EEE4E
:107237006AE806FDE1416A00EE35F00C0EEE6AE8F9
:1072470006FDE1170EF66E6F0EF76E000EF86E0074
:10725700EE28F010EE0DF00900F5CFEEFFE550E156
:1072670050FAE1000EF86E0001AAEF3CF0216A889F
:10727700EC37F021C01DF01E6A2150300F1F6E75CC
:10728700EC38F088EC37F020D82150610F1F6E756D
:10729700EC38F0212A090E2164EAD788EC37F0216F
:1072A700C01DF01E6A1F6A75EC38F088EC37F00CC9
:1072B700D81F6A75EC38F088EC37F01E6A1F0E1D70
:1072C7006EFD0E1F6E75EF38F0100E21241D6E1E19
:1072D7006A000E1E22000C0C6A0AAE06D0096C0A60
:1072E7001ED8B00A2A010E0C6E08AE06D0076C082D
:1072F7001ED8B0082A010E0C1A0D6A0E6A09500A28
:10730700101BE0010E0B6E04D0D89009360A360B1D
:107317002A0AAEFAD7D8900D360E360950075C0AFE
:1073270050085805E30950075E0A50085A0D80D8DF
:10733700900A3209320B2EEED70C5004E00D6C0E7A
:107347001ED8B00E2A0DC007F00EC008F0120010AC
:107357006E2B0EAD6EACA2FED7640E016E10505BA5
:10736700EC38F0126E1250300FAD6EACA2FED71291
:10737700C001F0026A04689C0E036EFBEC37F01044
:10738700500124076E000E0220086E0A6A0A0E09D1
:107397006E6FEC39F00750116E1150300FAD6EACB7
:1073A700A2FED712509C0DF3CF0FF01150F60DF33C
:1073B700500F241024300FAD6EACA2FED72B0EADAC
:1073C7006EACB21200FDD7C56B26AE06D0256C2673
:1073D7001ED8B0262A010EC56F24AE06D0236C2412
:1073E7001ED8B0242A010EC51BC66BC76B255026B5
:1073F700101BE0010EC46F04D0D89025362636C482
:107407002B26AEFAD7D890C637C7372550235C2628
:1074170050245805E32550235E2650245AC681D8A8
:107427009026322532C42FEED7C55104E0C66DC76A
:107437001FD8B0C72BC6C023F0C7C024F01200C99D
:107447006F2B0EAD6EACA2FED7640E1D6EC9518FA9
:10745700EC38F0CA6FCA51300FAD6EACA2FED7CA76
:10746700C01DF01E6A20689C0E1F6E0EEC38F0C916
:10747700511D24236E000E1E20246E266A0A0E2537
:107487006EE7EC39F02350C86FC851300FAD6EACC2
:10749700A2FED7CA519C0DF3CF27F0C851F60DF3C2
:1074A700502724C925300FAD6EACA2FED72B0EADE9
:1074B7006EACB21200FDD7026E0150040DF35002FC
:1074C70024FC0F036E21D04D0E1DD0300E1BD0466D
:1074D7000E19D0440E17D0370E15D0380E13D039E9
:1074E7000E11D0430E0FD0340E0DD0350E0BD03603
:1074F7000E09D0420E07D0310E05D0320E03D0331D
:107507000E01D0410E046E21D00350010ADCE003C6
:107517000ADCE0010ADCE0070ADCE0010ADCE00340
:107527000ADCE0010ADCE00F0ADCE0010ADCE00328
:107537000ADCE0010ADCE0070ADCE0010ADCE00320
:107547000ADCE0010ADCE01F0ADCE0045012002636
:107557006E0A0EAD6EACA2FED7256A34D825503D13
:10756700D8255023241D6E000E24201E6E9AEC375A
:10757700F0DF6E28D825502124D96E000E2220DA9C
:107587006EDF50AD6EACA2FED7252A1CD825502140
:1075970026000E2222FF0E2124D96EFF0E2220DAAA
:1075A7006EDF5003E00E0E2564D8D70CD8100E15E9
:1075B700D80F0E23241D6E000E24201E6E9AEC3762
:1075C700F0DF6E12002650110D1FC021F020C022DF
:1075D700F0F3502126F450222212002124D96E0004
:1075E7000E2220DA6E2650236E246A233A243AF0BC
:1075F7000E241623500F0B2412F00E2316F00C2026
:10760700EE28F010EECDF00B0EDBCFE3FFE806FC23
:10761700E20F0EC427000EC523C4C01DF0C5C01E4F
:10762700F0206A640E1F6EE9EC38F01D50D96FC464
:10763700C01DF0C5C01EF0206A640E1F6EE9EC384D
:10764700F01D50C45F1E50C55BC4C0C8F0030EC810
:1076570027C8170BE1C60503E141D8060E05D0027E
:107667000EC61903E13BD8020EDF6ED9C01DF01E0E
:107677006A2068FE0E1F6E0EEC38F0C4C0C8F0C555
:10768700C0C9F0D890C933C833D890C933C833C6F6
:10769700C0CAF0CA07CA51CD0FD96EDA6ADF50C720
:1076A700C0CBF0CC6BCB27000ECC23C851CB27C95E
:1076B70051CC231D50CB271E50CC23C451CB27C5FB
:1076C70051CC23060ECB25236E000ECC21246E262B
:1076D7006A070E256EA9EC38F023501200C6C0C801
:1076E700F0C807C851CD0FD96EDA6A12000600F448
:1076F700CF17F09DB09EA021D09E90C00ECF6E41B7
:10770700B406D0386A0001728F4182CD9016D041FD
:10771700A414D0372A0A0E371810E13950ABEC39C8
:10772700F03650030DF3503924CE0F186E18C0AD44
:10773700FFACA2FED7396ACD90376AF2BAF2A44FEE
:10774700D0C20ED76EF70ED626F2948C723F2A3B24
:107757000E3F6445D03F6A3E2A3B0E3E6440D03E12
:107767006A3D2A170E3D643BD03D6A402A060E400B
:107777006402D0010E406E3C2A34503C5C30E30179
:107787000E3C6E12D01F0E0BD03AC013F0030E132F
:1077970026131602E11D0E03D01C0E01D01E0E3457
:1077A7006E1ED03A2A3B6A1BD03B2A3B50010AEA9D
:1077B700E0030AEAE0010AE6E0070AF0E0010AE26C
:1077C700E0030AECE0010ADEE00F0ADCE0010AE66A
:1077D700E0030AD8E0010AE2E0070AD4E0E2D79D15
:1077E700B09EA003D08C749E90CD90F2B6F2A06CA0
:1077F700D01C6A8150F00B356EF290F00E3518618F
:10780700E0F296418041848C7081BE02D0010E0B5C
:10781700D081BC02D0020E07D081BA02D0030E037A
:10782700D081B803D0040E1B6E01D01B6A0F0E93D4
:1078370016F00E8A1283CF13F0F00E1316FBE195A4
:107847001283A802D0010E0BD083AA02D0020E0722
:10785700D083AC02D0030E03D083AE03D0040E1C3A
:107867006E01D01C6A1C501FE01B501DE00A0EADB4
:107877006EACA2FED71CC001F01B505FEC3AF0368D
:107887006E36C0ADFF1C50ABEC39F01B50ABEC397A
:10789700F0410E361802E1100E04D04D0E361803D3
:1078A700E1200E0001731BF00E93120F0E8C16953C
:1078B7001683CF13F0F00E1316FBE18150F00BF097
:1078C7000AFCE18150F00B356E9DBA9EAA36D04175
:1078D70094ABA20AD000017289AE50AB98AB88ABCB
:1078E700B2FBD74182419628D0ABA408D0000172E1
:1078F70089AE50AB9EAB8EABA4F4D7FAD7CD9038F8
:1079070050740FD96EDA6AAECFDFFF3850740FD9D3
:107917006EDA6ADF50AD6ECD80382A500E38180700
:10792700E03850730FD96EDA6A460EDE1805E1416A
:1079370086CD90CE6AC00ECF6E9E9A17C0F4FF1602
:10794700C0F3FF15C0DAFF14C0D9FF11000001EA28
:107957006BE66BE86BE46BE96BE36BE06B740EBD96
:10796700EC37F0226A216A740EEAEC37F01DC02367
:10797700F01EC024F0740E34EC38F0F00ED36EE035
:107987000EF26EF16A210E9D6ED09E870ED56EC2E5
:107997000ED76EF70ED66E8C6AF00E936E0F0E8AA8
:1079A7006EC30E946E956AC168070EB46E0E0ECD47
:1079B7006EC00ECF6ECE6A1E6A1D6A9AEC37F0FF54
:1079C7000AD8B43AEC39F0230EDAEC37F021EC3868
:1079D700F00001E36FE35123EC3AF0E76B09D0EBDA
:1079E7000E1F6E000E206EE751ABEC3AF00001E778
:1079F7002BE351E75DF4E3E76B9D8A3A6A010E3B9F
:107A07006E3C6E3AC0C4F0C56B3BC0C6F03CC0C705
:107A1700F003EC3BF0406E3D6A3E6A3F6A81CF352A
:107A2700F0F286F290E96B93829380800E1D6E08C8
:107A37000EA3EC37F0270EC86EC580C5B0FED792EF
:107A4700EC37F0500EC8EC38F092EC37F0550EC812
:107A5700EC38F092EC37F0550EC8EC38F092EC3772
:107A6700F0410EC8EC38F092EC37F0C584C5B4FE8F
:107A7700D792EC37F0C580C5B0FED792EC37F051FE
:107A87000EC8EC38F092EC37F0550EC8EC38F0928F
:107A9700EC37F0550EC8EC38F092EC37F00001E106
:107AA7006BB0EC37F0E16FE15123EC3AF0410EE1B6
:107AB70019D8B48C86ACA2FED7C58AC588C5B8FECE
:107AC700D7C584C5B4FED741A646D141960A0EADA7
:107AD7006EACA2FED70001E26B06D0E25187DAACAA
:107AE700A2FED70001E22B3850E25DF7E30A0EADA4
:107AF7006EACA2FED70001E96B2AD172A10CD0E9C6
:107B070051740FD96EDA6A3E0EDE18D8A4728F72DE
:107B170091EA6BE62B0CD1E6510AE1E951740FD9D2
:107B27006EDA6A490EDE18D8A4728F000144D0E6D7
:107B37000515E1E951740FD96EDA6ADF50E86FE98C
:107B47002B2F0EE86503D0370EE86501D0728F47FB
:107B5700DAE76F0F0EE765E9D77285E7D7020EE61A
:107B6700192CE1EA6B23D025DAE751110DEB0EDC76
:107B77006F000EDD6FF350DC27F450DD23EA51DC94
:107B870025E16E000EDD21E26EDE50E6180DE07293
:107B97008DE751F5D9FED9AD6EACA2FED70001E94C
:107BA70007E95124DAACA2FED70001EA2BE751E737
:107BB700D9F0D9D9E1E9077281BAD0030EE61901E4
:107BC700E0A6D0300EE81903E0320EE81918E1EA12
:107BD7006BF0D9DF50DB6FDC6BEA51DD6FDE6B4E8C
:107BE7000EDD27000EDE23DB51DD1903E1DC51DE5C
:107BF70019D8A4728FEA2B010EEA65EAD796D73116
:107C07000EE81905E1EA5101E092D0EA2B90D03451
:107C17000EE8193BE13A0E706F716BEA6BE951742C
:107C27000FD96EDA6A580EDE1803E1EA2B020EE965
:107C370027C8D9E951740FE16EE26AE7501D6EE972
:107C470051750FE16EE26AE7501E6E300ECAEC37CF
:107C5700F0DF6EB7D9DF50DF6FDF5123EC3AF0EA80
:107C67005123EC3AF0020EE927EA2B050EEA65D616
:107C7700D73AC0C4F0C56B3BC0C6F03CC0C7F003E1
:107C8700EC3BF0406E7281E90752D0370EE8194F8E
:107C9700E1A6D9E46FE71908E0E751100DF3CFDA51
:107CA700F00F0EDA27DAAD7287EA6BE92BE9517428
:107CB7000FD96EDA6A3C0EDE1810E1050EEA610292
:107CC700D0728F1FD00E0EEA6130D788EC37F0499B
:107CD700D97FD91F6A75EC38F028D7E951740FD9C5
:107CE7006EDA6AE4514CD9EA515CD988EC37F0393D
:107CF700D96FD9E951740FD96EDA6ADF501F6E75E3
:107D0700EC38F00001EA2B0E0EEA65CFD70ED70448
:107D17000EE6190DE1E951740FD96EDA6A460EDEE7
:107D270018D8A4728F4182386A419638B0418603C9
:107D37000E000172650AD07291E651300FAD6EE602
:107D47006B4182386A419638B041860001E92B3889
:107D570050E95D01E2D2D641A2D5D04192386A22DC
:107D67006A216A246A500E236E740E34EC38F00AC6
:107D77000EAD6EACA2FED7490EAD6EACA2FED70417
:107D87000E0001726171D0E6196FE1E66B4F0EAD1F
:107D97006EACA2FED74B0EAD6EACA2FED7320E0074
:107DA70001E81921E13A5023EC3AF03B5023EC3A31
:107DB700F0405023EC3AF03C5023EC3AF03D50238E
:107DC700EC3AF03E5023EC3AF03F5023EC3AF0E324
:107DD7005123EC3AF0100E23EC3AF0010E80A0008C
:107DE7000E23EC3AF088D0370EE81928E1E56BE569
:107DF70051600FD96EDA6AE451C2D8E551D2D888FA
:107E0700EC37F0AFD8E551DA251D6E000EDB211EE9
:107E17006EE551600FD96EDA6ADF501F6E75EC3868
:107E2700F0A6B2FED70001E52BE5515F0FD96EDA58
:107E37006ADF5061E00F0EE565DAD75DD0300EE8F6
:107E47001910E059D08280010E1E6E450E1D6E4737
:107E5700EC38F0829080B005D01E6A640E1D6E4724
:107E6700EC38F080B048D0EED7E66B386AE96B7231
:107E7700A70AD0450EAD6EACA2FED74E0EAD6EACC6
:107E8700A2FED70001729772AF12D0450EAD6EAC4D
:107E9700A2FED7500EAD6EACA2FED7370E0001E89A
:107EA7001904E1530EAD6EACA2FED70001729F72AA
:107EB700A90AD0450EAD6EACA2FED7430EAD6EAC8F
:107EC700A2FED70001729972AD0AD0450EAD6EAC15
:107ED700A2FED7530EAD6EACA2FED70001729D7203
:107EE700A50AD0450EAD6EACA2FED7490EAD6EAC5D
:107EF700A2FED700017295460EAD6EACA2FED781E9
:107F0700CF35F0F2868150F00BF00AD8B4F2B6DB29
:107F1700D541B041A4D8D51E6A3C0E1D6E47EC383A
:107F2700F0000173B9CDB003D0CD80E06B15D0E080
:107F37005136180FE1392A030E391806E0020E39B7
:107F4700640BD0390E361808E1CD90CE6ACF6A3966
:107F57006A03D073B936C0E0F081CF35F0F28641BD
:107F670090B2D50001E451DA6FDB6BDA3BDB3BF013
:107F77000EDB17DA510F0BDB13F00EDA17F00C11CB
:107F87000DEB0EDA6F000EDB6FF350DA27F450DBE0
:107F9700231200EA51DA25D96E000EDB21DA6EDFF3
:107FA700501200DA25E16E000EDB21E26EDFCFE72B
:107FB700FF1200E92BE905DA6FDA51740FD96EDA8F
:107FC7006A1200EA517025D96E000E7121DA6E121D
:107FD70000EA51DA251D6E000EDB211E6E1200E944
:107FE70051740FD96EDA6ADF50D00F1200740FD9AF
:0A7FF7006EDA6ADF50AD6E1200FF73
:020000040030CA
:0E0000001802381EFF8081FF0FC00FE00F4076
:00000001FF
