:041000000CEF08F0F9
:10100800D9CF16F0DACF17F0F3CF18F03AED3CF05D
:04101800E7EF3AF0D4
:10722800A6A21200FDD7016E01C0ADFFACB21200DC
:0E723800FDD71E6E1EC0ADFFACB21200FDD71A
:107247000003030601040602050003051F1EC0A96B
:10725700FFA69CA69EA68000F000F0A85012004F43
:107267004B00454E004550004543004553004549F6
:1072770000206E2050D00F640DF3CF21F01E50D0A8
:107287000F0A0DF35021261F50D00F21262150122F
:10729700001E6EAC98AC84B8861EC0AFFFAC9CAB2A
:1072A7009CAC8A9D9AAB88AB8EB8989D98AC9C1283
:1072B7000001500302F3CF05F0F4CF06F0015004AC
:1072C70002F350062602500302F350062605C001BA
:1072D700F006C002F01200206A05D008D8AD6E2073
:1072E7002AACA2FED703D8D8B41200F7D720501E75
:1072F70024D96E000E1F20DA6EDF5012001E5020B8
:1073070002F3CF22F0F4CF23F01E502102F35023D3
:10731700261F502002F350232622C01EF023C01F31
:10732700F01200206A216A2150100DF3CF1EF0F4ED
:10733700CF1FF02AEC39F0FF0AD8A4202A212A0F00
:107347000E2164F1D720501200216A226A0AD00662
:107357000E206E300EE82EFED7202EFCD700D0214F
:107367004A222A1E50215C1F502258D8B01200EF23
:10737700D7026E046A015014E0010E036E03D0D8E1
:10738700900136032A01AEFBD7D89004360150028C
:107397005C03E30150025E0480D8900132032EF4AF
:1073A700D7045012001F6E216A1E5014E0010E20F0
:1073B7006E03D0D8901E36202A1EAEFBD7D8902158
:1073C700361E501F5C03E31E501F5E2180D8901E9F
:1073D70032202EF4D7215012001EC0A9FF20C0A8CA
:1073E700FFA69EA69CA684000EF2BE010E216EF299
:1073F7009E550EA76EAA0EA76EA682A6B2FED7212D
:10740700B002D0F29E01D0F28EA69412000001E2E3
:107417006F0F0E232620EE29F010EED6F00B0EDBB1
:10742700CFE3FFE806FCE223C024F0030E24160492
:10743700E1060ED66F020ED76F22C024F024062471
:1074470050D60FD96EDA6ADF50256E640E1E6E2392
:1074570050D6EC39F0FE0D2340E8423F0BF32425CC
:10746700240001E22522242324060F1200226A1495
:10747700EC39F022C01EF01F6A2250300F206EF048
:10748700EC39F014EC39F020D82250610F206EF05F
:10749700EC39F0222A090E2264EAD714EC39F022DB
:1074A700C01EF01F6A206AF0EC39F014EC39F00CBA
:1074B700D8206AF0EC39F014EC39F01F6A1F0E1E61
:1074C7006EFD0E206EF0EF39F0100E22241E6E1F97
:1074D7006A000E1F22000C0C6A0AAE06D0096C0A5D
:1074E7001ED8B00A2A010E0C6E08AE06D0076C082B
:1074F7001ED8B0082A010E0C1A0D6A0E6A09500A26
:10750700101BE0010E0B6E04D0D89009360A360B1B
:107517002A0AAEFAD7D8900D360E360950075C0AFC
:1075270050085805E30950075E0A50085A0D80D8DD
:10753700900A3209320B2EEED70C5004E00D6C0E78
:107547001ED8B00E2A0DC007F00EC008F01200D7E3
:107557006B27AE06D0266C271ED8B0272A010ED778
:107567006F25AE06D0246C251ED8B0252A010ED76C
:107577001BD86BD96B265027101BE0010ED66F0462
:10758700D0D89026362736D62B27AEFAD7D890D81C
:1075970037D9372650245C2750255805E326502431
:1075A7005E2750255AD881D89027322632D62FEE1B
:1075B700D7D75104E0D86DD91FD8B0D92BD8C0245C
:1075C700F0D9C025F0120001EE1CF011EE10F0EE1C
:1075D7006AE550E150FCE1E250FAE100EE60F06448
:1075E7000EEE6AE806FDE1426A00EE36F00C0EEE9A
:1075F7006AE806FDE1660EF66E720EF76E000EF88B
:107607006E00EEC4F010EE12F00900F5CFEEFFE5C4
:1076170050E150FAE1470EF66E720EF76E000EF863
:107627006E00EE29F010EE0DF00900F5CFEEFFE544
:1076370050E150FAE1000EF86E00015FEF3DF010E7
:107647006E2B0EAD6EACA2FED7640E016E1050BC51
:10765700EC39F0136E146A1350300FAD6EACA2FE06
:10766700D713C001F014C002F004689C0E036E5CCF
:10767700EC39F010500124076E000E0220086E0A44
:107687006A0A0E096E6FEC3AF007C011F008C012D3
:10769700F01150300FAD6EACA2FED713509C0DF316
:1076A700CF0FF01150F60DF3500F241024300FAD0B
:1076B7006EACA2FED72B0EAD6EACB21200FDD7009A
:1076C70001DC6F2B0EAD6EACA2FED7640E1E6E00F2
:1076D70001DC51D6EC39F00001DD6FDE6BDD513096
:1076E7000FAD6EACA2FED7DDC01EF0DEC01FF021CD
:1076F700689C0E206E82EC39F0DC511E24246E004B
:107707000E1F20256E276A0A0E266EABEC3AF02470
:10771700C0DAF025C0DBF0DA51300FAD6EACA2FE57
:10772700D7DD519C0DF3CF28F0DA51F60DF3502831
:1077370024DC25300FAD6EACA2FED72B0EAD6EACA0
:10774700B21200FDD7266E0A0EAD6EACA2FED72789
:107757006A35D82224D96E000E2320DA6E265024EB
:107767006E256A243A253AF00E251624500F0B256C
:1077770012F00E2416275024241E6E000E25201FFB
:107787006E2AEC39F0DF6E1AD82224D96E000E2348
:1077970020DA6EDF50AD6EACA2FED7272A0FD822B3
:1077A70026000E2322FF0E2224D96EFF0E2320DA95
:1077B7006EDF5003E00E0E2764CBD7120026501160
:1077C7000D20C022F021C023F0F3502226F45023CD
:1077D7002227501200026E0150040DF3500224FCC0
:1077E7000F036E21D04D0E1DD0300E1BD0460E1943
:1077F700D0440E17D0370E15D0380E13D0390E11CE
:10780700D0430E0FD0340E0DD0350E0BD0360E09E7
:10781700D0420E07D0310E05D0320E03D0330E0101
:10782700D0410E046E21D00350010ADCE0030ADCCC
:10783700E0010ADCE0070ADCE0010ADCE0030ADC1D
:10784700E0010ADCE00F0ADCE0010ADCE0030ADC05
:10785700E0010ADCE0070ADCE0010ADCE0030ADCFD
:10786700E0010ADCE01F0ADCE0045012000600F425
:10787700CF19F09DB09EA014D09E90C00ECF6E423F
:10788700A406D03A6A0001C28F4282CD9009D04245
:10789700A407D0392A0A0E391803E14286CD903958
:1078A7006AF2BAF2A44ED0C20ED76EF70ED626F2FF
:1078B700948C72402A3B0E406444D0406A3F2A3B76
:1078C7000E3F643FD03F6A3E2A170E3E643AD03ED1
:1078D7006A412A060E416402D0010E416E3D2A35E7
:1078E700503D5C2FE3010E3D6E12D01F0E0BD03BB7
:1078F700C015F0030E1526151602E11D0E03D01C48
:107907000E01D01E0E356E1DD03B2A3C6A1AD03CA4
:107917002A3C50EBE0010AEBE0030AE7E0010AF139
:10792700E0070AE3E0010AEDE0030ADFE0010ADD10
:10793700E00F0AE7E0010AD9E0030AE3E0010AD50C
:10794700E0E3D79DB09EA003D08C749E90CD90F2BB
:10795700B6F2A06DD01D6A8150F00B376EF290F031
:107967000E371862E0F296428042848C7081BE0224
:10797700D0010E0BD081BC02D0020E07D081BA0213
:10798700D0030E03D081B803D0040E1C6E01D01CA7
:107997006A0F0E9316F00E8A1283CF15F0F00E15AC
:1079A70016FBE1951283A802D0010E0BD083AA0221
:1079B700D0020E07D083AC02D0030E03D083AE03F0
:1079C700D0040E1D6E01D01D6A1D501EE01C501CF8
:1079D700E00A0E17EC39F01DC001F01C50EEEC3B2D
:1079E700F0386E385017EC39F01D5023EC3BF01C83
:1079F7005023EC3BF0410E381802E1010E04D04D44
:107A07000E381802E1020E361A36B0CD80F00E930A
:107A1700120F0E8C16951683CF15F0F00E1516FB68
:107A2700E18150F00BF00AFCE18150F00B376E9DBD
:107A3700BA9EAA38D04294F296ABA20AD00001C2ED
:107A470089AE50AB98AB88ABB2FBD742824296293E
:107A5700D0ABA408D00001C289AE50AB9EAB8EABB1
:107A6700A4F4D7FAD73A50600FD96EDA6AAECFDFEF
:107A7700FF3A50600FD96EDA6ADF50AD6EACA2FEE6
:107A8700D73A2A500E3A1807E03A505F0FD96EDA04
:107A97006A460EDE1806E142868C70CD90CE6AC02B
:107AA7000ECF6E9E9A19C0F4FF18C0F3FF17C0DA05
:107AB700FF16C0D9FF110001011B6B176B196B155E
:107AC7006B1A6B146B126BF00ED36EE00EF26EF145
:107AD7006A210E9D6ED09E870ED56EC20ED76EF7A9
:107AE7000ED66E8C6AF00E936E0F0E8A6EC30E94CE
:107AF7006E956AC168070EB46E0E0ECD6EC00ECFBE
:107B07006ECE6A1F6A1E6A2AEC39F0FF0AD8B43AA9
:107B1700EC3AF0230E4CEC39F095EC39F0010114F6
:107B27006F145163EC3BF00101186B09D01C0E2058
:107B37006E010E216E1851A6EC3BF00101182B14B3
:107B470051185DF4E3186B9D8A3B6A3C6A010E3D50
:107B57006E3CC022F03DC023F03B500AEC3AF041A6
:107B67006E3E6A3F6A406A81CF37F0F286F29042F2
:107B7700A662D142960101145163EC3BF00A0EADA7
:107B87006EACA2FED70101136B06D013512FDAACEE
:107B9700A2FED70101132B3A50135DF7E30A0EAD8E
:107BA7006EACA2FED701011A6B3FD10001C2A11032
:107BB700D001011A51600FD96EDA6A3E0EDE180243
:107BC700E00001C28F0001C29101011B6B172B1B43
:107BD700D1010117510AE11A51600FD96EDA6A49CA
:107BE7000EDE1859E00001C28F56D0170518E11AAA
:107BF70051600FD96EDA6ADF50196F1A2B2F0E19E1
:107C07006503D0370E196502D00001C28FE8D9D0BD
:107C17000F186F0F0E18653FD00001C2853CD002C8
:107C27000E17193CE11B6B2DD00101D0D9010118AA
:107C370051110D1C0E0001E56F010EE66FF350E5C3
:107C470027F450E62301011B510001E525E16E00F1
:107C57000EE621E26EDE50E61812E0C28D01011831
:107C6700518FD9D96E000EE421DA6EDF50AD6EACBC
:107C7700A2FED701011A071A51B9D9ACA2FED70142
:107C8700011B2B18517DD9D96E000EE421DA6EDF66
:107C970050CBE101011A070001C281B5D0030E17CD
:107CA7001901E0A0D0300E191903E0320E19191B83
:107CB700E11B6B8CD9DF50E46FE56B01011B5100B1
:107CC70001E66FE76B4E0EE627000EE723E451E669
:107CD7001903E1E551E719D8A4C28F01011B2B0154
:107CE7000E1B65E7D7D8D7310E191905E11B5101CE
:107CF700E08AD01B2B88D0340E19192CE13B0E00DB
:107D070001C06FC16B01011B6B1A51600FD96EDA8D
:107D17006A580EDE1803E11B2B020E1A271A516050
:107D27000FD96EDA6ADF501E6E1A51610FD96EDAFB
:107D37006ADF501F6E300E3CEC39F0C0C0D9FFC16E
:107D4700C0DAFFDF6E020E1A271B2B060E1B65DC3F
:107D5700D71A0759D0370E191956E11A51600FD99A
:107D67006EDA6ADF50D00F156F181909E018511035
:107D77000DF3CFE3F00F0E0001E327E3ADC2870158
:107D8700011B6B1A2B1A51600FD96EDA6A3C0EDE93
:107D97001810E1050E1B6103D00001C28F1DD00E24
:107DA7000E1B6179D714EC39F0FAD8206AF0EC3958
:107DB700F072D71A51600FD96EDA6A1551E1D8E11E
:107DC7006E000EE421E26EDFCFE7FF14EC39F0E737
:107DD700D806D9206EF0EC39F001011B2B0E0E1BD3
:107DE70065D0D759D7040E17190EE11A51600FD96C
:107DF7006EDA6A460EDE1802E00001C28F42823A4E
:107E07006A42963AB04286030E0001C2650BD0C2A1
:107E17009101011751300FAD6E176B42823A6A42DA
:107E2700963AB0428601011A2B3A501A5D01E2BD1B
:107E3700D6145163EC3BF042A266D042923A6A01F3
:107E470001176B0A0E1DEC39F0490E1DEC39F08C49
:107E5700760001C2A70DD0C7C003F1C8C004F1C99D
:107E6700C005F1030E1E6E010E1F6E6FEC39F0C2D6
:107E770097C2AF16D0CAC006F1CBC007F1CCC00875
:107E8700F1060E1E6E010E1F6E6FEC39F0370E01F4
:107E970001191904E1530EAD6EACA2FED70001C261
:107EA7009FC2A90DD0CDC009F1CEC00AF1CFC00B3A
:107EB700F1090E1E6E010E1F6E6FEC39F0C299C2EA
:107EC700AD0DD0D0C00CF1D1C00DF1D2C00EF10C68
:107ED7000E1E6E010E1F6E6FEC39F0C29DC2A50D0E
:107EE700D0D3C00FF1D4C010F1D5C011F10F0E1EC1
:107EF7006E010E1F6E6FEC39F0C295460E1DEC3900
:107F0700F081CF37F0F2868150F00BF00AD8B4F247
:107F1700B62ED642B042A42BD61F6A3C0E1E6EA8C0
:107F2700EC39F036B002D0428626D0410E3818031D
:107F3700E04D0E381802E100F01ED0010112513851
:107F47001813E10001C32B040EC36106D0020EC350
:107F57006508D0390E381805E1CD90C00ECF6EC335
:107F67006B0AD038C012F107D036A005D00001C384
:107F770051F8E04286F6D781CF37F0F2864290F784
:107F8700D5110D1C0E0001E36F010EE46FF350E3F2
:107F970027F450E42301011B510001E325120001DE
:107FA7000115510001E36FE46BE33BE43BF00EE4A2
:107FB70017E3510F0BE413F00EE31701011B5100F8
:107FC70001E3251E6E000EE4211F6E12001A2B1A04
:107FD700050001E36FE351600FD96EDA6A12000101
:107FE700011A51600FD96EDA6ADF501200600FD99B
:0A7FF7006EDA6ADF50AD6E1200FF73
:020000040030CA
:0E0000001802381EFF8081FF0FC00FE00F4076
:00000001FF
