:061000000CEF08F01F00D8
:10100800E1CF1FF0E2CF20F0D9CF21F0C9ED36F0C3
:101018006EEF34F00001000A006400E80310270AAC
:101028000A0A253032643A253032643A253032646F
:101038002D253032642E253032642E25303264005E
:101048000A0A436F6E7461206E616F206578697358
:1010580074656E7465000A0A4572726F20646520B3
:1010680070726F746F636F6C6F000A0A4572726FEB
:10107800206465206162657274757261000A0A53A2
:10108800656E686120696E636F7272657461000ACB
:101098000A44657374726176616E646F2E2E2E0039
:1010A8000A0A506F72746120616265727461002867
:1010B8006E756C6C29000A0A25730041542B002AAE
:1010C8002563005345000A49004F4B004154002551
:0810D800640020002A00000062
:10629000A6A21200FDD7066E06509BEF33F0000158
:1062A000656F655103EF34F0000303060104060235
:1062B00005000305026ECD9002C0CFFF01C0CEFFE6
:1062C00012000001606F60C0ADFFACB21200FDD7DC
:1062D000616FCD9061C0CFFF60C0CEFF120060C083
:1062E000A9FFA69CA69EA68000F000F0A850120070
:1062F0008D90010E54EC32F00B0E026E620EE82E01
:10630000FED7022EFCD700D012008D90010EE0ECDB
:1063100031F00B0E616F620EE82EFED7612FFCD7B5
:1063200000D01200036E026A3A0E036005D02F0EF1
:10633000036402D0010E026E02C001F001301200AF
:10634000626F616B3A0E626105D02F0E626502D0FA
:10635000010E616F61C060F060311200626F6251C6
:10636000D00F640DF3CF63F06051D00F0A0DF350DE
:1063700063276151D00F6327635112000001606FE2
:10638000AC98AC84B88660C0AFFFAC9CAB9CAC8AC8
:106390009D9AAB88AB8EB8989D98AC9C120008D0A3
:1063A00060C0D9FF61C0DAFF000EDF6E604B612B69
:1063B00060C0D9FF61C0DAFFDF50D8B41200F0D757
:1063C0000001606F350EE82EFED700F0F00E891642
:1063D0000001603963EC32F060510F0B89128D823D
:1063E0008D921200646F010E656F616F64514BEC0A
:1063F00033F005D08D80100EE0EC31F0652B375076
:10640000655DD8B01200F6D701500302F3CF05F056
:10641000F4CF06F001500402F350062602500302A6
:10642000F350062605C001F006C002F012006051CC
:106430006203F3CF64F0F4CF65F060516303F3506F
:10644000652761516203F350652764C060F065C041
:1064500061F01200636B646B0BD0060E626F300E3E
:10646000E82EFED7622FFCD700D00001634B642BCF
:106470006051635D61516459D8B01200EED7626B10
:10648000636B6351100DF3CF60F0F4CF61F06FECEC
:1064900031F0FF0A02E00001622B0001632B0F0EB6
:1064A0006365EFD762511200016E350EE82EFED7FC
:1064B00000F0F00E8916013806D801500F0B891232
:1064C0008D828D9212000F0B89128D828D92F00EAB
:1064D0008916F00C60C0A9FF62C0A8FFA69EA69C0A
:1064E000A684000EF2BE010E636FF29E550EA76EDB
:1064F000AA0EA76EA682A6B2FED763B102D0F29E04
:1065000001D0F28EA6941200616F636B605114E0AB
:10651000010E626F03D0D8906037622B60AFFBD75B
:10652000D89063376051615D03E36051615F6381BF
:10653000D8906033622FF4D7635112000A500B10C9
:1065400017E0010E0C6E04D0D8900A360B360C2AD8
:106550000BAEFAD70A50085C0B50095804E30A50F6
:10656000085E0B50095AD8900B320A320C2EF2D723
:1065700008C008F009C009F0120069516A1117E05B
:10658000010E6B6F04D0D89069376A376B2B6AAFF6
:10659000FAD76951675D6A51685904E36951675FC9
:1065A0006A51685BD8906A3369336B2FF2D767C042
:1065B00067F068C068F01200056A066A03500410AC
:1065C0001BE0010E076E04D0D89003360436072A6C
:1065D00004AEFAD7D890053606360350015C045055
:1065E000025805E30350015E0450025A0580D8901A
:1065F00004320332072EEED705C001F006C002F0C8
:106600001200046E8D9018D002507F0F54EC32F0BF
:106610001CD00250BF0F54EC32F017D002502F2480
:10662000036E030454EC32F010D002503024036E99
:10663000030454EC32F009D00450010AE5E0030AE7
:10664000E8E0010AEBE0070AF0E01200656B666B18
:10665000625163111BE0010E646F04D0D890623761
:106660006337642B63AFFAD7D890653766376251CA
:10667000605D6351615905E36251605F6351615B25
:106680006581D89063336233642FEED765C060F0C4
:1066900066C061F01200636F8D9018D061517F0F5A
:1066A000E0EC31F01CD06151BF0FE0EC31F017D0BD
:1066B00061512F24626F6205E0EC31F010D061511E
:1066C0003024626F6205E0EC31F009D06351010AB9
:1066D000E5E0030AE8E0010AEBE0070AF0E0120057
:1066E00016D060C0F6FF61C0F7FFF86A070EF764C6
:1066F00003D00800F55005D0F6CFE1FFF7CFE2FF59
:10670000E750AD6EACA2FED70001604B612B60C0BC
:10671000F6FF61C0F7FFF86A070EF76403D00800C0
:10672000F55005D0F6CFE1FFF7CFE2FFE7500009C3
:10673000D8B41200D6D7056E29D078EC31F02ED01F
:10674000332A040E33640ED0010E336E0BD0332A7D
:10675000020EF8D73250FBE0010AF2E0030AF7E03C
:10676000010AEEE0010E026E335001EC33F016D058
:10677000010E336E8D90800E54EC32F00FD08D8070
:10678000010E336E055054EC32F008D005500A0A61
:10679000E1E0060AD2E0010AEBE0F1D71200656BF6
:1067A00061AF06D0606D611FD8B0612B010E656FBF
:1067B00063AF04D0626D631FD8B0632B6251631165
:1067C00017E0010E646F04D0D89062376337642BF2
:1067D00063AFFAD76251605D6351615904E362515E
:1067E000605F6351615BD89063336233642FF2D78B
:1067F000655104E0606D611FD8B0612B60C060F02E
:1068000061C061F01200646F29D085EC31F02ED0A8
:10681000332A040E33640ED0010E336E0BD0332AAC
:10682000020EF8D73250FBE0010AF2E0030AF7E06B
:10683000010AEEE0010E616F33504BEC33F016D0DD
:10684000010E336E8D90800EE0EC31F00FD08D8014
:10685000010E336E6451E0EC31F008D064510A0A45
:10686000E1E0060AD2E0010AEBE0F1D712008D90D8
:10687000400EE0EC31F08D800E0EE0EC31F00A0EAF
:10688000E0EC31F00A0EE0EC31F00A0EE0EC31F011
:106890001F0EE0EC31F01B0EE0EC31F01B0EE0ECD3
:1068A00031F01F0EE0EC31F0030EE0EC31F0020E9F
:1068B000E0EC31F0020EE0EC31F0020EE0EC31F0F1
:1068C0001F0EE0EC31F01B0EE0EC31F01B0EE0ECA3
:1068D00031F01F0EE0EC31F08D90120001EE50F01F
:1068E00011EE10F0EE6AE550E150FCE1E250FAE101
:1068F00001EE00F0500EEE6AE806FDE100EEAFF0AA
:106900003D0EEE6AE806FDE100EE2DF0120EEE6A95
:10691000E806FDE1A80EF66E620EF76E000EF86E48
:1069200000EEECF010EE0CF00900F5CFEEFFE550B4
:10693000E150FAE1040EF66E100EF76E000EF86EDE
:106940000900F5CF3FF0000EF86E0001D5EF3AF0E8
:106950006B6B69AF06D0686D691FD8B0692B010EEB
:106960006B6F67AF06D0666D671FD8B0672B010EDF
:106970006B1B6C6B6D6B685169111BE0010E6A6FCC
:1069800004D0D890683769376A2B69AFFAD7D890A6
:106990006C376D376851665D6951675905E3685119
:1069A000665F6951675B6C81D890693368336A2F81
:1069B000EED76B5104E06C6D6D1FD8B06D2B6CC0C1
:1069C00066F06DC067F01200716F2B0EAD6EACA259
:1069D000FED7640E606F715184EC32F0726F736B8E
:1069E0007251300FAD6EACA2FED772C060F073C0B2
:1069F00061F063699C0E626F17EC32F07151602593
:106A0000666F000E6121676F696B0A0E686FA8ECF4
:106A100034F066C06FF067C070F06F51300FAD6E2C
:106A2000ACA2FED772519C0DF3CF6EF06F51F60DF4
:106A3000F3506E257125300FAD6EACA2FED72B0E34
:106A4000AD6EACB21200FDD70001646B48EC31F0C2
:106A500064C060F00001616B6451300F626F6AECDA
:106A600032F048EC31F02CD86451610F626F6AEC5F
:106A700032F00001642B090E6465E8D748EC31F070
:106A800064C060F00001616B626B6AEC32F048EC4C
:106A900031F016D8626B6AEC32F048EC31F000014C
:106AA000616B0F0E606F62696AEC32F048EC31F096
:106AB0000001616B1F0E606FFC0E626F6AEF32F0B7
:106AC000100E00016425606F616B000E6123000CE5
:106AD000696F686B2AD8685133D868516625606F32
:106AE000000E6721616F6FEC31F0DF6E0001682BE3
:106AF0001CD868516427000E6523FF0E6425D96EEB
:106B0000FF0E6521DA6EDF5003E00E0E6865E2D7F6
:106B10000CD80F0E15D80F0E6625606F000E67217A
:106B2000616F6FEC31F0DF6E12006951110D62C0C0
:106B300064F063C065F0F3506427F45065231200DD
:106B40006425D96E000E6521DA6E6951666F676B38
:106B5000663B673BF00E671766510F0B6713F00E2D
:106B60006617F00C026E0150040DF3500224FC0F66
:106B7000036E21D02A0E1DD0300E1BD0460E19D028
:106B8000440E17D0370E15D0380E13D0390E11D051
:106B9000430E0FD0340E0DD0350E0BD0360E09D06B
:106BA000420E07D0310E05D0320E03D0330E01D085
:106BB000410E046E21D00350010ADCE0030ADCE040
:106BC000010ADCE0070ADCE0010ADCE0030ADCE0A1
:106BD000010ADCE00F0ADCE0010ADCE0030ADCE089
:106BE000010ADCE0070ADCE0010ADCE0030ADCE081
:106BF000010ADCE01F0ADCE004501200636F010EA2
:106C0000336E63C032F012D0140E01D0100E376E06
:106C100015D0140E376E940E2F6ED40E05D0100EB4
:106C2000376E900E2F6ED00E306E08D03250EEE0E0
:106C3000010AF5E0030AE8E0010AEBE08D908D928D
:106C40004E0E626FEB0EE82EFED7622FFCD700F0DF
:106C5000030E896E8D828D921A0E0001626FF80EFE
:106C6000E82EFED7622FFCD700D08D828D92C80E01
:106C700000F0E82EFDD78D828D92C80E00F0E82E30
:106C8000FDD7020E896E8D828D92280EE0EC31F0D8
:106C90000C0EE0EC31F085EC31F0060EE0EC31F05A
:106CA00037EF34F020EEECF010EE75F00B0EDBCF8A
:106CB000E3FFE806FCE20F0E6C27000E6D236CC0AC
:106CC00060F06DC061F0636B640E626F26EC33F0B0
:106CD0006051816F6CC060F06DC061F0636B640ED9
:106CE000626F26EC33F060516C5F61516D5B6CC07C
:106CF00070F0030E702770170BE16E0503E141D8A9
:106D0000060E05D0020E6E1903E13BD8020EDF6EAF
:106D100081C060F0616B6369FE0E626F17EC32F048
:106D20006CC070F06DC071F0D89071337033D89032
:106D3000713370336EC072F072077251750FD96E75
:106D4000DA6ADF506FC073F0746B7327000E742320
:106D500070517327715174236051732761517423EB
:106D60006C5173276D517423060E7325676F000EE7
:106D70007421686F6A6B070E696FBDEC32F0675162
:106D800012006EC070F070077051750FD96EDA6A1C
:106D900012000600DACF22F0F3CF23F0F4CF24F074
:106DA000F6CF25F0F7CF26F0F8CF27F0F5CF28F073
:106DB0009DB09EA01DD09E90C00ECF6E2EB606D068
:106DC000356A0001B1832D80CD9012D02EA410D051
:106DD000342A050E34180CE12DB82D8236C002F08D
:106DE000020E01EC33F0DC0EF4EC37F0CD90346A97
:106DF000F2BAF2A451D0C20ED76EF70ED626F29494
:106E00008C722D8E2E803D2A3B0E3D6445D03D6A0E
:106E10003C2A3B0E3C6440D03C6A3B2A170E3B6444
:106E20003BD03B6A3E2A060E3E6402D0010E3E6E07
:106E30003A2A3F503A5C30E3010E3A6E12D01F0EF0
:106E40000BD038C01EF0030E1E261E1602E11D0ECA
:106E500003D01C0E01D01E0E3F6E1ED0382A396A98
:106E60001BD0392A3950010AEAE0030AEAE0010A94
:106E7000E6E0070AF0E0010AE2E0030AECE0010ABA
:106E8000DEE00F0ADCE0010AE6E0030AD8E0010ACE
:106E9000E2E0070AD4E0E2D7F2B6F2A056D0815081
:106EA000F00B316EF290F00E31184CE0F2962D8618
:106EB0002E868C7081BE02D0010E0BD081BC02D018
:106EC000020E07D081BA02D0030E03D081B803D0DE
:106ED000040E2B6E01D02B6A0F0E9316F00E8A1241
:106EE00083CF1EF0F00E1E16FBE1951283A802D090
:106EF000010E0BD083AA02D0020E07D083AC02D0C1
:106F0000030E03D083AE03D0040E2C6E01D02C6A86
:106F10002C5009E02B5007E02CC001F02B50B2ECB4
:106F200035F00001B26FF00E93120F0E8C160F0E9B
:106F3000951683CF1EF0F00E1E16FBE18150F00B6C
:106F4000F00AFCE18150F00B316E9DBA9EAA37D059
:106F50002E94ABA20AD00001B189AE50AB98AB8899
:106F6000ABB2FBD72D802D9229D0ABA408D0000165
:106F7000B189AE50AB9EAB8EABA4F4D7FAD7016A01
:106F8000C00E5AEC31F0000E3524D96EDA6A010ECB
:106F9000DA22AECFDFFFCD80352A500E351809E05A
:106FA000FF0E3524D96EDA6A000EDA22460EDE189C
:106FB00005E12D82016AC00E5AEC31F09E9A28C07C
:106FC000F5FF27C0F8FF26C0F7FF25C0F6FF24C055
:106FD000F4FF23C0F3FF22C0DAFF21C0D9FF20C095
:106FE000E2FF1FC0E1FF1100116E010E156E4CD1C2
:106FF000250E1D1804E01D504BEC31F045D11B6AE5
:107000001C6A1A6A02D01A84112A11C0F6FF40D9EC
:10701000300AF9E011C0F6FF3BD992EC31F001E201
:1070200099D01B6A1C6A1BC001F01CC002F0046AE4
:107030000A0E036E04EC32F001C01BF002C01CF01B
:10704000D00E0D6E0E6811C0F6FF22D90F6E106AB9
:107050000D500F260E5010220F501B2610501C22D0
:10706000112A11C0F6FF14D992EC31F073E3DBD78B
:107070001550D96EDA6ADF500D6E0DC013F0146A28
:10708000152A1350141006E1B70E136E1350D8A42E
:10709000100E146E186A196A02D0184A192A18506C
:1070A00013240D6E195014200E6E0DC0F6FF0EC085
:1070B000F7FFF86A070EF76403D00800F55005D013
:1070C000F6CFE1FFF7CFE2FFE7500009E6E11B5002
:1070D000185C1C50195805E218501B5E19501C5AB8
:1070E00006D01B6A1C6A03D0200E4BEC31F01B0645
:1070F000D8A01C061B28F8E11C2815E0F5D713C002
:10710000F6FF14C0F7FFF86A070EF76403D0080013
:10711000F55005D0F6CFE1FFF7CFE2FFE7504BEC9B
:1071200031F0134A142A1806D8A019061828E7E1E6
:10713000192801E1A9D0E3D71550D96EDA6ADF50DA
:107140001D6E020E15261D0E136E146A196A010EAD
:10715000186EBDD7A2D801E19AD0630AEDE0070A04
:1071600005E00D0A03E01A0A83E0EDD71550D96E49
:10717000DA6ADECF16F0DDCF17F0020E152617AE55
:1071800006D0030E1A12166C171ED8B0172A010E5D
:107190001D6E050E1D180DE01D50020DF3501D0F44
:1071A00088D8F550165C0900F550175802E31D2ADF
:1071B000F0D71B501C1008E01AC00DF0030E0D167E
:1071C00003E01B06D8A01C06800E1DBE7F0E0D6EB0
:1071D0001B501D5C1C50800A0D5807E21D501B5EA1
:1071E000000E1DBEFF0E1C5A02D01B6A1C6A1AA498
:1071F00012D01AC00DF0030E0D1603E02D0E4BEC4D
:1072000031F01B501C101BE0300E4BEC31F01B0614
:10721000D8A01C06F6D71B501C1009E0200E4BEC22
:1072200031F01B06D8A01C061B501C10F7E11AC039
:107230000DF0030E0D1603E02D0E4BEC31F01DC0CA
:1072400012F01FD01250020DF3501D0F32D8F5CF9F
:1072500003F00A00F5CF04F016C001F017C002F0E9
:10726000DCEC32F001C008F002C009F00B6A0A0E33
:107270000A6E9EEC32F00850300F1D6E1D504BEC24
:1072800031F012061228DEE108D801E0B1D6120072
:10729000100EF76E0800F5501200112A11040D6E41
:1072A0000DC0F6FF100EF76E0800F5CF1DF01D5053
:1072B00012000D6E0DC0F6FF100EF76E09001200E1
:1072C000856F6C0E7F6F59D1250E881904E08851A7
:1072D0004FEC31F052D1866B876B846B02D0848582
:1072E000852B85C0F6FF48EC39F0300AF8E085C000
:1072F000F6FF48EC39F0A0EC31F001E29FD0866B4C
:10730000876B86C060F087C061F0636B0A0E626FA6
:1073100017EC32F060C086F061C087F0D00E786F55
:10732000796985C0F6FF48EC39F07A6F7B6B78514C
:107330007A2779517B237A5186277B518723852BA6
:1073400085C0F6FF48EC39F0A0EC31F077E3D9D7EF
:107350007F51D96EDA6ADF50786F78C07DF07E6B2E
:107360007F2B7D517E1106E1B70E7D6F7D51D8A434
:10737000100E7E6F826B836B03D00001824B832BD8
:1073800082517D25786F83517E21796F78C0F6FF19
:1073900079C0F7FFF86A070EF76403D00800F550CC
:1073A00005D0F6CFE1FFF7CFE2FFE7500009E5E1B6
:1073B00000018651825D8751835905E28251865FC3
:1073C0008351875B06D0866B876B03D0200E4FEC12
:1073D00031F000018607D8A087078629F7E18729C1
:1073E00016E0F4D77DC0F6FF7EC0F7FFF86A070EFF
:1073F000F76403D00800F55005D0F6CFE1FFF7CFD2
:10740000E2FFE7504FEC31F000017D4B7E2B82070D
:10741000D8A083078229E6E1832901E1AED0E2D733
:107420007F51D96EDA6ADF50886F020E7F27880E8F
:107430007D6F7E6B836B010E826FBAD7A3D801E19B
:10744000A0D0630AEDE0070A06E00D0A04E01A0A7C
:1074500001E17ED7ECD77F51D96EDA6ADECF80F0BA
:10746000DDCF81F0020E7F2781AF06D0030E84139B
:10747000806D811FD8B0812B010E886F050E881991
:107480000DE08851020DF3501D0F88D8F550805D36
:107490000900F550815902E3882BF0D786518711F6
:1074A00008E084C078F0030E781703E08607D8A0C0
:1074B0008707800E88BF7F0E786F8651885D875161
:1074C000800A785907E28851865F000E88BFFF0E58
:1074D000875B02D0866B876B84A514D084C078F05C
:1074E000030E781703E02D0E4FEC31F000018651AA
:1074F00087111DE0300E4FEC31F000018607D8A057
:107500008707F5D7865187110AE0200E4FEC31F03E
:1075100000018607D8A0870786518711F6E184C04D
:1075200078F0030E781703E02D0E4FEC31F088C091
:107530007CF01FD07C51020DF3501D0F2FD8F5CFDA
:1075400062F00A00F5CF63F080C060F081C061F0A6
:1075500026EC33F060C067F061C068F06A6B0A0E19
:10756000696FBDEC32F06751300F886F88514FEC76
:1075700031F000017C077C29DDE1000103D801E046
:10758000A3D61200852B8505786F78C0F6FF100E04
:10759000F76E0800F5CF88F088511200786F78C038
:1075A000F6FF100EF76E090012000001AC6BA86B1D
:1075B000AD6BA66BAE6BA56BA96BA36BA46BF00E4A
:1075C000D36EE00EF26EF16A210E9D6ED09E870E94
:1075D000D56EC20ED76EF70ED66E8C6AF00E936E15
:1075E000926A040E966E0F0E8A6EDF0E946E956A86
:1075F000C168070EB46E0E0ECD6EC00ECF6ECE6A91
:10760000616B606B6FEC31F0FF0AD8B424EC35F09D
:10761000230EBEEC31F03FEC32F0A56FA551E4EC47
:1076200034F0AB6B20D0500E626F010E636FAB5124
:1076300068EC35F00001AB51110D500EF324606F72
:10764000010EF420616F70EC33F00001C4EC3FF0E8
:10765000E4EC34F0ABC089F0B8EC3FF08A51A313EE
:107660008B51A413AB2BA551AB5DDDE3AB6B9D8AB6
:1076700000D000D0386A010E396E3A6E38C06CF016
:1076800000016D6B39C06EF03AC06FF052EC36F00D
:107690003E6E3B6A3C6A3D6A81CF31F0F286F290E1
:1076A000AE6B030EFEEC35F0140E616F010E4BEC69
:1076B00033F0F2EC3FF060EC39F0010E616F4BEC0F
:1076C00033F08D8084CF6CF06D6BD70E60EC39F0A9
:1076D0002DA272D22D922EB6BFD10A0E61EC31F0DE
:1076E000000E0001606F010E616F70EC33F00A0E46
:1076F00061EC31F0520E0101001940E1010E000170
:10770000A76F0CD0F9EC3FF0A7C089F08907895129
:107710008F0FE16EE26ADFCFE7FFA72BF9EC3FF0B6
:10772000520EDE18EFE1D40E606F6051D8A4100E37
:10773000616F70EC33F00001616B640E606F2AECD6
:1077400032F0C30E606F6051D8A4100E616F70EC00
:1077500033F08F0E0001606F616B70EC33F000014D
:10776000616B140E606F2AEC32F0000EA725606F7B
:10777000616B010E612370EC33F01ED20001AE6B21
:1077800066D1B1A10AD0EDDB3E0EDE1802E0B18F6A
:1077900057D1B191AC6BA82B53D1A85107E1E1DBD4
:1077A000490EDE18D8A4B18F000178D0A80550E1A9
:1077B000D8DBDF50AD6FAE2B2F0EAD6503D0370E8B
:1077C000AD6501D0B18FCDDBDF50606FAE2BC9DB73
:1077D000DF50616F300EAEEC31F0AB6F0F0EAB656A
:1077E00002D0B18508D0360EAD1905E0ABC089F0E6
:1077F000BFDBF1DBF6E0C8DB896F300E606FADC038
:1078000061F0AEEC31F08A6F010E8B6F8A2B02D0E3
:10781000D8908B378A2FFCD700018B518915C4E192
:10782000B187B2DB896FADC08AF0D00E8A27010E16
:107830008B6F8A2B02D0D8908B378A2FFCD7000110
:107840008B518915E4EC34F09FDBE4EC34F0ACD7D9
:10785000020EA81925E1AC6B16D0A0DBAB51110DBF
:10786000500E8C6F010E8D6FF3508C27F4508D23CA
:10787000AC518C25E16E000E8D21E26EDE50E618D3
:10788000D8A4B18DAC2BAB5194DBAC518925D96E0A
:10789000000E8A21DA6EDF50E0E1AE07B181D0D070
:1078A000030EA81901E0BCD0300EAD1903E0320E72
:1078B000AD1918E1AC6B72DBDF508B6F8C6BAC5188
:1078C0008D6F8E6B4E0E8D27000E8E238B518D1972
:1078D00003E18C518E19D8A4B18FAC2B010EAC658D
:1078E000EAD762D7310EAD1905E1AC5101E0A8D05D
:1078F000AC2BA6D0340EAD1956E1380EAF6FB06B7D
:10790000AC6B2FDB580EDE1803E1AC2B020EAE275A
:10791000AC51AF25D96E000EB021DA6E000EAE2547
:10792000E16EE26A010EE222E750606F010EAE25C1
:10793000E16EE26A010EE222E750616F300EAEECBA
:1079400031F0DF6E020EAE27AC2B050EAC65D9D739
:1079500038C06CF06D6B39C06EF03AC06FF052EC0D
:1079600036F03E6E0C0E396401D003D0395002E17E
:10797000010E396E3A503F5C03E23FC03AF004D04A
:107980003A5002E1010E3A6E170E3B6401D03B6A99
:107990003B0E3C6401D03C6A3B0E3D6401D03D6A25
:1079A000B181AE074DD0360EAD1903E0370EAD19DB
:1079B00047E1360EAD1905E1D4DADF50D00FA66FDE
:1079C00005D0370EAD19D8B4ABC0A6F0AC6BC9DA90
:1079D0003E0EDE1802E1B18F18D0C3DA3C0EDE187D
:1079E0000DE1050EAC6101D0F6D70E0EAC6112D0E0
:1079F000AC51DC0FD96EDA6ADF6A0CD0B2DAAC5166
:107A0000DC0FE16EE26ADFCFE7FFAE2BAC2B0E0E90
:107A1000AC65DDD7DC0E606F616B70EC33F0C4D603
:107A2000040EA8190DE19DDA460EDE18D8A4B18F18
:107A30002D80356A000E606F010E616FCFEC31F062
:107A4000010EB16503D0B191A86BB5D0AE2B355006
:107A5000AE5D01E3B1D095D62EA4AED02DA821D035
:107A60000001606BC00E68EC31F0B3511AE02F0ECC
:107A7000A96517D03A0EA96114D03650B40FD96E4B
:107A8000DA6AA951030DF350B325CD0FDF6EB36B46
:107A9000B251A91904E0B2C0A9F0CD8008D0A96BF9
:107AA00006D03650B40FD96EDA6AB2C0DFFF0001DB
:107AB000B36BB26BB40E6C6FBE0E60EC39F0365027
:107AC000B40FD96EDA6A460EDE1817E036500BE0B6
:107AD00036C061F0020E4BEC33F075DAC70E60EC85
:107AE00039F0CD800AD03628616F020E4BEC33F0AE
:107AF0006ADAC80E60EC39F0F4D73650B40FD96E9C
:107B0000DA6A460EDE1804E0362A270E361854E1EB
:107B1000606BC00E68EC31F03650B40FD96EDA6A83
:107B2000DF6AB4510A0DF350B525F00FAB6F020EAA
:107B3000AE6F0F0EAB6502D0B18508D0360EAD1911
:107B400005E0ABC089F014DA46DAF6E0070E3660DD
:107B500001D0B18F020EF2EC31F020D0AB51110DFB
:107B6000FE0E896F8A69500E8B6F010E8C6F8951E2
:107B70008B278A518C23F3508B27F4508C23AE51E2
:107B80008B25D96E000E8C21DA6EAE51B40FE16EEA
:107B9000E26ADE50E618D8A4B18DAE2B120EAE61AB
:107BA00009D0AE51B20FD96EDA6ADF5003E0010E90
:107BB000B165D4D72D8E2D802DA044D12D900001FC
:107BC000AE6BA86B000E606F010E616FCFEC31F0F1
:107BD000B40E606F616BCFEC31F02EA45AD0020E60
:107BE000B16142D0030EF2EC31F0970E60EC39F047
:107BF00089698A0EE82EFED7892FFCD700D0030EA4
:107C00000001616F200E606F2AEC32F0A16B15D07D
:107C1000A12B060EA11902E1B18B11D08B88010EA8
:107C2000616F5E0E606F2AEC32F084B405D0616B38
:107C3000640E606F2AEC32F08B9884A4E9D7140E9E
:107C4000616F010E4BEC33F0CDD960EC39F0030ECF
:107C5000F2EC31F084B404D0720E60EC39F0F2D062
:107C6000A80E60EC39F0EED0030EF2EC31F0B1AFBB
:107C700004D05E0E60EC39F0E5D0B1A504D0480E1A
:107C800060EC39F0DFD0B1ADDDD0850E60EC39F0BD
:107C9000D9D0CE0E606F6051D8A4100E616F70EC19
:107CA00033F00001B15101E093D0A86B8C74D10E78
:107CB000606F6051D8A4100E616F70EC33F0320E1B
:107CC0000001AD1921E13850E4EC34F03950E4EC16
:107CD00034F03E50E4EC34F03A50E4EC34F03B50F5
:107CE000E4EC34F03C50E4EC34F03D50E4EC34F09F
:107CF000A551E4EC34F0100EE4EC34F0010E84A451
:107D0000000EE4EC34F098D0370EAD1903E0360ED7
:107D1000AD1941E1A6C089F02BD98A51A3138B512B
:107D2000A413AA6BAA51DC0FD96EDA6AA65141D905
:107D3000AA518925E16E000E8A21E26EDFCFE7FFAE
:107D400048EC31F00001A651896F8A6B893B8A3B70
:107D5000F00E8A1789510F0B8A13F00E8917AA515A
:107D60008925606F000E8A21616FAA51DC0FD96EE0
:107D7000DA6ADF50626F6AEC32F0A6B2FED7000119
:107D8000AA2BAA51DB0FD96EDA6ADF5055E00F0E2D
:107D9000AA65C8D751D0300EAD194EE1A26B15D0EF
:107DA000A22B060EA21902E1B18B46D08B88010EE0
:107DB000616F450E606F2AEC32F08B9884B405D069
:107DC000616B640E606F2AEC32F084B435D0E8D772
:107DD000450E61EC31F00001B1A308D0CB0E606F0D
:107DE0006051D8A4100E616F70EC33F00001B1AB9C
:107DF00003D0410E61EC31F00001B1A703D04E0E6B
:107E000061EC31F00001B1AF03D0500E61EC31F004
:107E10000001B1A903D0430E61EC31F00001B1AD16
:107E200003D0530E61EC31F00001B1A503D0490E2F
:107E300061EC31F00001B16B460E61EC31F081CFA5
:107E400031F0F2868150F00BF00AD8B4F2B652D07D
:107E50002DB62EA44FD00001616B640E606F2AEC2A
:107E600032F02F0EB26503D0390EB2652AD0606BA6
:107E7000C00E68EC31F0B2C0A9F0460EB21902E1B2
:107E80002D8233D0410EB21902E1100E04D02A0E19
:107E9000B21903E1200E2D1A28D0440EB21925E1A3
:107EA0003650D8A436063650B40FD96EDA6ADF6A77
:107EB00036C061F0020E4BEC33F0DA0E60EC39F0B4
:107EC00014D02DA8DDD7B251A9190BE1B32B030EA5
:107ED000B319D6E0020EB31908E1390EB219D0E099
:107EE00004D0B351CDE1B2C0A9F02DB8CD8081CF7F
:107EF00031F0F2862DAE26D02D9E2EA023D03BC091
:107F00006CF000016D6B3CC06EF06F6B3DC070F0AB
:107F1000716B3AC072F0736B39C074F0756B0F0EF1
:107F20003824606F616B000E6123636B640E626FB7
:107F3000CFEC33F060C076F061C077F0270E60ECD4
:107F400039F02E902DAE2DB268EF3BF02DA0F2A6A9
:107F500068EF3BF09DAA68EF3BF0030000F068EF8C
:107F60003BF0000EAE25D96EDA6A010EDA2212005D
:107F7000010E8A6F8B6B892B03D0D8908A378B3791
:107F8000892FFBD700011200AB51110D5F0EF324B6
:107F9000D96E010EF420DA6EDF501200AE2BAE0562
:107FA000896F8A6B000E8925D96E010E8A21DA6EDF
:107FB0001200110D500E896F010E8A6FF350892740
:107FC000F4508A2312003650B40FD96EDA6ADF50AB
:107FD0006C6F6D6B1200A3518A17A4518B178A51D5
:107FE0008B111200010E84A4000E6C6F6D6BC80E15
:107FF0001200000EA725D96EDA6A010EDA221200ED
:020000040030CA
:0E0000001802381EFF8081FF0FC00FE00F4076
:00000001FF
