:041000000CEF08F0F9
:10100800FACF05F0FBCF06F0E9CF07F070ED3FF01F
:041018001CEF3FF09A
:107D9400D388D38AD38C12000D0A596F7520747955
:107DA400706564203A00016EACAC05D0AC902BA297
:107DB40002D0AC8000D001C0ADFF1200F20E2B1631
:107DC400ABAC05D02B90ABA002D02B8000D0ABB4D1
:107DD4002B84ABB22B86AECF01F0015000D0120041
:107DE40000D0ACA2FED702C0D9FF03C0DAFFDF5037
:107DF400D5EC3EF002C0D9FF03C0DAFF024A032AE1
:107E0400DF50D8A4EED71200CAEC3EF0949C948EB6
:107E14007C0E2C6E330E2D6E2DC013F0146A2C5074
:107E240038EC3FF09E9A9F9A9D8AF28CF28EFFD78F
:107E34000CEF08F001EE00F0C80EEE6AE806FDE172
:107E44002B6A2A6A296A9C0EF66E7D0EF76E000E66
:107E5400F86E00EE1BF010EE0EF00900F5CFEEFF09
:107E6400E550E150FAE1000106EF3FF0156E000E17
:107E7400AC6E000EAB6E15A002D0AC8800D015A27B
:107E840003D0AC8CAB8C00D015A402D0AC8E00D047
:107E940015A602D0AB8802D0AB8A00D015B8AC844A
:107EA4009E9815AA02D0AB8600D015AC02D09D8A4C
:107EB40001D09D9A9E9A15AE02D09D8801D09D98BE
:107EC40013C0AFFF1450B06EAC8AAB8E949C948EEA
:107ED400ACB8ACBE02D0948C00D012000600EACF3D
:107EE40008F0E1CF09F0E2CF0AF0D9CF0BF0DACFF6
:107EF4000CF0F3CF0DF0F4CF0EF0F6CF0FF0F7CF78
:107F040010F0F8CF11F0F5CF12F09EAA5AD02ABE85
:107F140006D02A5037E1C80E295CD8B033D0000E01
:107F24002924D96E010E2A20DA6EE0EC3EF0DF6ED1
:107F3400000E2924D96E010E2A20DA6E0D0EDE18E9
:107F4400D8A41CD0000E026E010E036EF2EC3EF0BB
:107F54000CD0000E2924D96E010E2A20DA6E000EF0
:107F6400DF6E2906D8A02A0600D02ABE25D02A50C2
:107F7400F0E12904D8B0EDD71FD023D0294A2A2A0A
:107F84009E9A1FD0000E026E010E036EF2EC3EF0BC
:107F94000CD0000E2924D96E010E2A20DA6E000EB0
:107FA400DF6E2906D8A02A0600D02ABE05D02A50A2
:107FB400F0E12904D8B0EDD7000E2A6E000E296E28
:107FC40000D012C0F5FF11C0F8FF10C0F7FF0FC0BA
:107FD400F6FF0EC0F4FF0DC0F3FF0CC0DAFF0BC0B8
:107FE400D9FF0AC0E2FF09C0E1FF08C0EAFF07C0E9
:0C7FF400E9FF06C0FBFF05C0FAFF11000A
:00000001FF
